:1000000000800020B105000000000000000000009A
:1000100000000000000000000000000000000000E0
:1000200000000000000000000000000000000000D0
:10003000000000000000000000000000C9000000F7
:10004000E500000000000000E501000005020000DE
:100050003502000055020000750200009502000004
:10006000B5020000D5020000F502000015030000F3
:1000700035030000550300007503000087030000EE
:10008000002303600B601312012B30B514D106233B
:1000900013F1FF3310D3094DD4B25D5D641BF7D467
:1000A000074A126852F8232032B122440260054AFE
:1000B000D35C1C1B0C6030BD30BD00BFA806000027
:1000C000A4060000AE060000684620F007018D4639
:1000D00001B5034B01229A72BDE801408546704785
:1000E00000000020684620F007018D4679B54FF0EA
:1000F000A0456B69C3F30363022B1ED005D8012B07
:1001000059D1354B00221A6155E0042B23D0082B1E
:1001100051D131490023CB600B6195F8202095F82F
:10012000213043EA02222D4B4A611B68002B42D04A
:1001300001F118001C3198473DE0274B99690029CF
:1001400039D01A69D869824235DA501C186195F89D
:1001500020308B542FE0204CA269002A2AD0E3687B
:10016000E1698B420BDAD25C6A621D4A12681AB1ED
:100170006069184480B29047E368013316E0626911
:1001800016491A440E6804F1180004F11C01B04726
:10019000A3696BB16069E268104460611B786B62AF
:1001A0000F4B1B680BB180B298470123E36002E05C
:1001B0006B6200E06A6201224FF0A0431A734FF0B5
:1001C000A0435A6912F0706FF9D101225A73BDE849
:1001D00079408546704700BF00000020B400002031
:1001E000B0000020064B684620F007011B688D46D2
:1001F00001B503B19847BDE801408546704700BF8F
:10020000AC000020684620F007018D4601B5084B80
:10021000012159714FF080431A6861F30F221A606F
:100220001A686FF307021A60BDE8014085467047FF
:1002300000000020064B684620F007011B688D4631
:1002400001B503B19847BDE801408546704700BF3E
:10025000A8000020064B684620F007011B688D4669
:1002600001B503B19847BDE801408546704700BF1E
:10027000A4000020064B684620F007011B688D464D
:1002800001B503B19847BDE801408546704700BFFE
:10029000A0000020064B684620F007011B688D4631
:1002A00001B503B19847BDE801408546704700BFDE
:1002B0009C000020064B684620F007011B688D4615
:1002C00001B503B19847BDE801408546704700BFBE
:1002D00098000020064B684620F007011B688D46F9
:1002E00001B503B19847BDE801408546704700BF9E
:1002F00094000020064B684620F007011B688D46DD
:1003000001B503B19847BDE801408546704700BF7D
:1003100090000020064B684620F007011B688D46C0
:1003200001B503B19847BDE801408546704700BF5D
:100330008C000020064B684620F007011B688D46A4
:1003400001B503B19847BDE801408546704700BF3D
:1003500088000020064B684620F007011B688D4688
:1003600001B503B19847BDE801408546704700BF1D
:1003700084000020684620F007018D4601B5BDE8E5
:10038000014085467047684620F007018D4601B55B
:10039000BDE8014085467047F0B587B000BF754C99
:1003A000754D0026611904392046ADF8046000F04F
:1003B00027F9724B724903F138021A6203F14F02B6
:1003C0005A6203F157029A6203F15F02DA6203F1A3
:1003D00075025A638A6AADF80400C3F85F20CA6ADE
:1003E000CF6BC3F86320BDF8042003F16B00A3F8C2
:1003F0006920644ABFB204921863A3F86770059637
:10040000082212F1FF3203D304AE965D8654F8E75A
:10041000A40A83F857405C4C5C4EA40A83F8584009
:10042000EE2483F8594083F85A40594C0396A40AA5
:1004300083F85B40574C83F87660A40A83F85C40ED
:10044000554C4526A40A83F85D40544C83F851204E
:10045000248883F8522083F8532083F8542083F8AB
:10046000552083F85620BDF804204FF0300C83F857
:100470007B604D2683F879C083F87A604FF0480C92
:10048000222692B283F878C083F87C604FF0330C58
:100490000326AD0ABA42394883F877C083F87560FD
:1004A00083F85E50A3F84F4061D1B0F84F400A8AFC
:1004B00094425CD13A4A128892B2ADF80620394A89
:1004C0001288ADF80820384A1288ADF80A20BDF825
:1004D00006404FF6FF72A4B294420AD0284CBDF8F1
:1004E0000620648A92B2944204BFBDF80620A0F8A8
:1004F0005120BDF808004FF6FF7280B2904209D03B
:10050000BDF80820888A92B2904204BFBDF8082046
:10051000A3F85320BDF80A004FF6FF7280B2904254
:1005200018D0BDF80A20C88A92B2904212D1042293
:100530000020013AD2B2FF2A07D01C4C8D18A45CCF
:100540002D79A54208BF0120F3E718B1BDF80A20B4
:10055000A3F85520B3F853204FF6FF739A4206D004
:10056000064AB2F85500C01A18BF012000E000206A
:1005700007B0F0BD000000000000020000000020F5
:10058000C0FF01004D4950000008000054334830BE
:100590000008000000C8010000C80100FE070000BC
:1005A000FE7F0200FEC70100BEFF010000C801007F
:1005B000684620F007018D4601B50C4B1A696FF3B0
:1005C00010421A610A4B0B4A934203D2002243F8AD
:1005D000042BF8E700F034F8FFF7DEFE08B100F076
:1005E0000FF9054A054B1A6062B6FEE7000010508D
:1005F00000000020B800002081000000B4000020AE
:1006000010B50E4BC0F31104DA6E091A920C920465
:100610002243DA661A6F61F311021A679A6E42F08A
:1006200001029A6600BFB3F8762092B2002AFAD08F
:10063000024BB3F8740080B210BD00BF0000105030
:100640004FF0A04301225A741968342060F31E61F0
:100650001960596802206FF31A615960596860F394
:1006600012415960596862F30A215960596862F36E
:1006700003015960996841F4706199600649DA7222
:100680004B6913434B61054B1978054B0901C9B2FE
:1006900083F800131A60704700001050B406000081
:1006A00000E100E0200000200020304050701708DA
:1006B000080C0A08000101020405060703030303EE
:1006C0000303000000010203040405060708090AE9
:1006D0000B0B0C0D0E0F101111121314151516170C
:1006E0001818191A1B1B1C1D1D1E1F1F202121223B
:1006F000232324242525262727282829292A2A2B8D
:100700002B2C2C2D2D0000007804EF08660DDB113A
:100710005016C21A331FA1230C28742CD930393536
:100720009639EE3D42429046D94A1B4F58538E5758
:10073000BE5BE65F07641F68306C397038742F78D1
:100740001C7CFF7FD983A8876D8B278FD5927996E4
:10075000109A9B9D1BA18DA4F3A74BAB97AED4B170
:1007600004B526B839BB3EBE34C11BC4F2C6BAC9F3
:1007700073CC1BCFB3D13BD4B2D619D96EDBB3DD6A
:10078000E6DF08E218E416E603E8DDE9A5EB5BED39
:10079000FEEE8FF00DF277F3CFF414F646F764F81F
:1007A0006FF967FA4BFB1BFCD8FC81FD17FE98FE26
:1007B00006FF5FFFA5FFD7FFF5FFFFFFFFFFFFFF6E
:1007C000FFFFFFFFFFFFFFFFFFFFFFFFFFFFFFFF39
:1007D000FFFFFFFFFFFFFFFFFFFFFFFFFFFFFFFF29
:1007E000FFFFFFFFFFFFFFFFFFFFFFFFFFFFFFFF19
:1007F000FFFFFFFFFFFFFFFFFFFFFFFFFFFF0420E3
:100800002DE9F04FDBB002AF09F048FD02F0D2FC59
:10081000F8600AF0A1FD0AF0EBFD01F086FA07F09E
:1008200015FC954A954B1A60954A964B1A60964B63
:10083000586810F400540AD102F072FE0028F6D075
:10084000204602F075FE022002F0CEFBEFE75A6868
:100850009204FCD402F0AEFC0228834600F0D28160
:1008600006D890B1012800F0C081C7F80CB0F1E7BC
:10087000082800F003820C2800F010820528F4D12B
:1008800002F024FD02F01BF8F3E102F0ABFC054698
:1008900038B30128E9D17D4EDFF80482326888F848
:1008A000680088F86CB0916A794CB9605169236826
:1008B0007960022183F8E0B19162C2F814B0754A00
:1008C000B24612689178197150785871D2785846AA
:1008D0005143196170493F235A460B7102F0CAFD1A
:1008E000BDE06E4A6E4B6A49126883F868B01078B2
:1008F0000B6801261871527888465A71694A146843
:10090000647C60431861012E02D0022E10D08FE06B
:1009100000200AF063FED8F8003062491A791A60A4
:100920000B681C7C24B1002000F02EFA013CF9E792
:10093000564B07F180051B68284693E8060001FB2B
:1009400002FA5B69C7F808D003EB4A039B000A333D
:1009500023F00703ADEB030D1422002106F096FAF5
:1009600007F12C0407F58873636007F1C803A360DF
:1009700007F16803E560236107F1200507F15403DF
:10098000DFF824916B6007F14003AB6002AED9F849
:10099000003006EB8A0206EBCA0A5A601E60C3F8F2
:1009A0000CA0DC611D62D8F8003093F90630012BF1
:1009B00008D1002005F094FC354BFF221B689A718A
:1009C0001A791A60D9F80030524693E8030007F00C
:1009D0005DFBFB680BB102F079FCD8F80030002217
:1009E0009A60314952460B68009593E8030023460C
:1009F00000F07CFCD8F800306FF0004299680646A1
:100A0000914202D09A6801329A6036B902F0EAFB4C
:100A100018B902F0CFFB0028E3D0D9F8002000235A
:100A200013605360D360D3611362BA68FB6095466C
:100A300002F0D8FB00287FF418AF02F0BBFB0028BF
:100A40003FF461AF11E7022D30D002F0CBFB01285B
:100A500040F0C58002F0AEFB002840F0C080012DC0
:100A6000F1D10BF0CCF80B4B1B685D79F5B104208C
:100A700000F05EFB013DF9E785350000B400002081
:100A80000D360000B000002000000250E4040020F9
:100A9000B800002080180020630500208418002082
:100AA000D01800207C180020BC000020DAF80030AC
:100AB000E94693E8060051439869DA695B6900FBEF
:100AC000021213449B000A3323F00703ADEB030D1E
:100AD00007F11C033B6607F118037B6607F114035B
:100AE0007B6407F11003BB6407F18003BB66DFF88A
:100AF000C88107F1C803FB6607F58873BB6700254B
:100B0000D8F8003007F12C0EC7F858E002A8FD61B4
:100B100007F1200E07F15405C7F85CE000EB8101F6
:100B2000DD6107F1400E00EB820207F16805996074
:100B30005D621860DA60C3F820E02368DD6A009522
:100B40009B6A09F097FEF96809B102F0BFFB5749AB
:100B50000020A22302460B7102F08CFC03F08EFBF6
:100B6000002380F8E030524B1B681B7913B12368D7
:100B7000FF2201E0236801229A71236800259D600D
:100B800000F0A8FD4B4A82F86E504B490B685A6A38
:100B900000929968DA6918681B6A00F035FE2368CC
:100BA0006FF0004299680546914202D09A6801327E
:100BB0009A603DB902F016FB012803D102F0FAFA5F
:100BC0000028E2D0D8F80020002313609360D3609F
:100BD0009361D36113625362CD46FB6035E733689E
:100BE000BA6879689A6259613FE602F06FFB02F0D9
:100BF000E1FA0128FBD00AF087FB07F027FA02F0A0
:100C000031FA32E607F076FB02F09EFA07F0F8F9C7
:100C100002F05CFB02F074FB04281ED007D8022807
:100C20000ED010D801281DD107F000FC1AE00828CA
:100C300016D0092807D0072814D108F049FE11E082
:100C400007F072FD0EE01B4B93F8683013B107F00C
:100C5000F1FD07E007F02EFF04E008F081FD01E060
:100C600007F0D4FB02F0A6FA0228D3D007F096FBD7
:100C7000FBE502F09FFA0528FBD0F6E502F026FB23
:100C800002F028FD002305780446037007F058FAA7
:100C900002F090FA0828F9D02570E6E502F016FB7C
:100CA00002F088FA0C28FBD0DFE500BF63050020C6
:100CB00080180020D0180020BC000020014B1860D4
:100CC000704700BF7C180020014B1868704700BFB8
:100CD0007C180020014B1860704700BF841800206A
:100CE000014B1868704700BF84180020014B186042
:100CF000704700BF80180020014B1868704700BF84
:100D000080180020014B1868704700BFB800002011
:100D1000014B5868704700BFB8000020714610B5FD
:100D20000F48744601F022FE0E4B1B685A6B002AD6
:100D3000C9BFD96B00218918C90FC9B232B9DA6BA2
:100D400012F1320FACBF0022012200E000220A4360
:100D500083F8142121460248BDE8104001F024BE6A
:100D60001D0D0000B800002038B5064D7446284619
:100D7000714601F0FBFD28462146BDE8384001F0F0
:100D800013BE00BF690D0000044B054A1B681268C2
:100D90000146906A0CCB05F031BE00BFBC000020BC
:100DA000B800002030B5224C85B0236893F8CC21E0
:100DB00012B993F8B02112B1002283F81421D3F8AC
:100DC00014011C4910F0FF151DD0D3F81C21002080
:100DD0000192DA6B02925B6B01AA039303234B70BF
:100DE0008423CB7010230B7102F044FB2368002096
:100DF000D3F81C21022AD5BF0132C3F81C01C3F865
:100E00001C21012011E0DA6B092001925B6B01AA21
:100E1000029302234B708423CB7064230B7102F086
:100E200029FB23682846C3F81C5105B030BD00BF1C
:100E3000B8000020B40200202DE9F04F744B89B0B7
:100E400093F8683002AFF860B9601BB102F04EFC55
:100E5000447D02E002F03EFC047ADFF8C4A16D4D4F
:100E6000DAF80030DFF8BCB193E8060001FB02F8C5
:100E70005B69286843445B00083323F00703ADEB4C
:100E8000030D0DF10809DBF8003009EB4808C3F841
:100E90001090C3F814800021D422343005F0F6FFFE
:100EA0002B68484603F134019A6AFB6802F0FEFCA5
:100EB0002B68DBF80020009403F5847178601269D8
:100EC000D869343309F09EFF2B684046DA6A03F193
:100ED0003401BB6802F066FC2C68386004F584714C
:100EE00004F1340002F01AFCDAF80030C4F80C0106
:100EF0001A68494C022622705A689B686270A37077
:100F000046F08003E37053232371DBF80030214661
:100F10001A69012002F0AEFADAF800303F495B6945
:100F200001204B7046F08003CB7042466D230B715D
:100F300002F0A0FADAF8003001201A6807F1100177
:100F40003A745A687A749A68BA7493F82C205B6978
:100F5000FA743B75002246F080037B75CDF8009053
:100F6000134602F04DFADAF8003021461A680520DF
:100F700022705A68E6706270DA68832323712B68E6
:100F8000A2705B6A013203EB420202F073FAFFF7D0
:100F9000C5FEFFF707FF5C4680BB2B68D86901F0F0
:100FA00059FC2B68D3F80C0101F050FC01F05EFEF7
:100FB000174B93F8683033B197E8060041EA020313
:100FC00013F0FF0F0DD12B68494603F13402F86886
:100FD0001B6802F07DFE2B68B86841461A6802F073
:100FE00049FF052001F0EFFB404603F073FA286843
:100FF00000F5887004F0FEF9002000E03046236818
:1010000000221C371A615A61BD46BDE8F08F00BF4F
:10101000D0180020B80000205C050020B402002099
:10102000E4040020BC0000202DE9F04F91B002AF95
:1010300089460446904602F06BFB03F01FF9C7F89F
:1010400008D092B002AB92B00DF1080B8AB002AAA0
:1010500090B07A6102AA8AB040253A6102AA184685
:1010600088B0FA6000212A467B604FF0200A05F024
:101070000DFF2A465846002105F008FF78695246C0
:10108000002105F003FF38692A46002105F0FEFE25
:1010900002AEF8685246002105F0F8FE524630468E
:1010A000002105F0F3FE7B6892B03B627B697E63B2
:1010B000BB623B6902AEFB622A46FB681B4D3046B1
:1010C00000213B63C7F824B005F0E0FE2B6807F170
:1010D0001C0003F584720092196A32465B6A09F0BB
:1010E000B5FC2B68CDF8009007F11C00196A324658
:1010F0005B6A03F02FFC07F11C0021464A46434679
:1011000003F03EFE2B682046196A5A6A03F046FF38
:10111000204603F029F9BA682046954649464246DA
:1011200003F0B2F83C37BD46BDE8F08FB8000020B0
:101130000128014601DCFFF727BE044B044A1B6867
:101140001268906A1A689B6805F0BABABC00002061
:10115000B800002070B5AEB005AD14240646224696
:101160002846002105F092FE2246684610AC002178
:1011700005F08CFE28222046002105F087FE24ABD6
:101180000B931AAB0AA831460C9300AB0E930D9546
:101190000F9403F0F5FF04F01BF80AA804F04EF9D1
:1011A0002EB070BDF8B5074603F068F8044605F0A8
:1011B000E1FD4A4D94F8E0102B68064693F90620AD
:1011C00009B9511C08D196F84C00002108B11975D5
:1011D0009961D960002421E01969D86867B1884213
:1011E00002DAD8680130D860012A01D1012415E063
:1011F000DB688B4247DB0BE0884202DAD8680130BB
:10120000D860DB688B423EDB012AEFD0022A61D135
:10121000334B002283F86E20012401E0944232D047
:101220003049002004F10E0302460B7102F022F94E
:101230001FB1204605F054F81EE02B6893F90620F4
:10124000012A03D114B9264981F86F20002183F8BF
:10125000E011254B1B685A6AD1725A6A11725A6A98
:1012600091725A6A51725A6A11735A6A11755B6A9D
:101270000422186905F00AFE2B689C711CB983F8DA
:101280001541C3F818412B68987910F0FD0F01D172
:101290001A791DE040B201281ED1BFB196F84C204A
:1012A000A2B19A6901329A611A7D1AB100221A75A7
:1012B00005F016F82B6896F84D209969914205DDE6
:1012C0000020012298611A7505F00AF82B685A79F6
:1012D0001A60F8BD0224A3E7F8BD00BFB8000020E3
:1012E000D018002063050020BC0000202DE9F04F3D
:1012F00099B0044602AF6F488946714675461E464E
:10130000904601F033FB6C490020A6220A71024688
:1013100002F0B0F80120FFF745FF0120FFF734FD90
:1013200001F060FF012800F0B880644BDFF894A161
:1013300093F865300220002B18BF4C46DAF80030D5
:1013400007F108011A683A725A687A729A68BA7292
:1013500093F82C205B69FA723B7304237B73584B20
:1013600000221B689B6A0093134602F049F820464E
:101370004146FFF761FD044618B13046FFF7EAFE2B
:1013800079E0EA468CB002AB7B608CB007F12C03AD
:10139000184607F118090DF1080B21468AB01422EE
:1013A0003B600DF1080805F071FD48462146142206
:1013B00005F06CFD40462146282205F067FD3B689C
:1013C000C7F85090DFF804917868FB64D9F80030D2
:1013D000C7F8548007F140083146C3F81880D7F8A1
:1013E000802078644046C7F848B0FFF71DFE4046AD
:1013F000FFF7BAFC02F094F84E4610B9404604F0EC
:101400001DF897F8402012219300073303F4FF637F
:10141000ADEB030D02AB9646F86C405E002806DD8E
:10142000786D0EF1FF3E50F8110043F82E0002399E
:10143000881CF1D123484FF000080168086838740F
:10144000486887F814807874C86891F82C10B874CC
:10145000F974822179751A4901300968496A01EBEA
:101460004000009007F11001032001F0C9FF33682C
:10147000C3F81880D546124B1B6893F9B40100F0ED
:1014800029F8114B002808BF20461B681B68B3F1E0
:10149000CD3F04D001F013FAFEE7002400E004463B
:1014A0000448294601F080FA20465C37BD46BDE875
:1014B000F08F00BFED12000063050020D01800205F
:1014C000B8000020E4040020A4180020BC00002084
:1014D000012070472DE9F843714607465748F14609
:1014E00001F044FA04F054FE054601F0ADFE544C00
:1014F0000646236893F8DC31834214D0514938B151
:1015000000203B2302460B71032501F0B3FF05E0E9
:101510003C2302460B7101F0ADFF3546236883F88A
:10152000DC61012600E0002601F09AFE2268804678
:1015300092F8DC31E3B992F8DD21824218D04149BA
:1015400038B139220A7118461A4601F093FF022574
:101550000BE03A2302460B7101F08CFF384B1B68FD
:1015600093F8DE51003518BF0125236883F8DD812B
:1015700001F02CFE804601F05BFE032F04D0B8F191
:10158000000F06D0022600E00126002001F024FE14
:1015900032E02368B3F8DC81B8F1000F2CD1012FC1
:1015A00002D0022F04D00EE0384601F091FF0AE08D
:1015B000404601F08DFF224B1B6893F8DF3113B1D9
:1015C000404601F095FF01F07BFF2368074693F842
:1015D000DE31834210D000281A494FF000000CBFC2
:1015E0001223112302460B710CBF0025012501F0C7
:1015F00041FF236883F8DE7104F0CAFDA8420CD0D5
:10160000284604F0BFFD09F0F3FE002001F070FF52
:101610002368002283F8DF21012601F039FE044609
:1016200002F02CFE43794946A34218BF4471034897
:1016300001F0BAF93046BDE8F88300BFD5140000C8
:10164000B800002063050020714610B510487446AC
:1016500001F08CF902F012FE0E4B1B685A6B002A47
:10166000C9BFD96B00218918C90FC9B232B9DA6B69
:1016700012F1320FACBF0022012200E000220A4327
:1016800083F8142121460248BDE8104001F08CB9CE
:1016900049160000B80000202DE9F0410C4E044628
:1016A0000F46304671469046754601F05FF9207D41
:1016B0002369294603EBC00243F83070C2F8048066
:1016C000237D304601332375BDE8F04101F06CB94C
:1016D0009916000038B5104D71462846744601F041
:1016E00045F90E4B00211A68536AD972536A197270
:1016F000536A9972536A5972536A1973536A197506
:10170000526A1069042205F0C1FB28462146BDE853
:10171000384001F049B900BFD5160000BC000020D8
:101720002DE9F04F83B00446274800AF7146F046DC
:1017300001F01CF9637B94F814A0A3F11802022AAB
:10174000206939D80AEB4A02911C0932E946D208CD
:10175000A9EBC204A5460222EB468DF800208DF8C5
:1017600001306E460024E3B2534500F1080506F14E
:1017700003061DD2796003F047FD55F8043C7370F1
:1017800055F8083C337004EB44035B4455F8042CD3
:101790009878121262F30710987055F8082CC0B2AE
:1017A000121262F303009870013428467968DAE770
:1017B000584601F00BFECD46034841460C37BD4666
:1017C000BDE8F04F01F0F0B82117000073B50D4DE2
:1017D000714606462846744601F0C8F8F1238DF894
:1017E000043001238DF80530737D01A803218DF8A5
:1017F000063001F0EBFD2846214601F0D5F802B095
:1018000070BD00BFCD1700002DE9F04F9BB08146A1
:1018100002AFB5488A467146FA60BB60C7F810E06F
:10182000D7F8884001F0A2F80020FFF7BBFCAF4BCF
:1018300093F86A209846D2B283F86B2093F86B2015
:101840001AB1002388F86D300CE093F86D30013345
:10185000DBB2642B88F86D3004D9012388F86A3034
:1018600088F86B30A24D2B6893F906B0BBF1020FDC
:1018700007D02B689E4E93F90630012B40F0A880CC
:1018800021E09C4E0021336850465A6A920005F0D0
:10189000FDFA5846FFF74CFC30682E68836913F157
:1018A000FF33E6D3C26912F1FF32F8D3016A01FBBC
:1018B000032E816801FB032BB16A51F82B10090438
:1018C0004AF82E10EFE798F86E30C7F814D00133BD
:1018D000DBB20F2B88F86E30DFF818B20BD9834AD1
:1018E000002182F86E10DBF80020052014781679AC
:1018F000FFF71EFC07E0DBF800200320147E167FB4
:10190000FFF716FCD14698F86C2002F0FF0822B1D0
:10191000764B002283F86C2057E004FB06F252005D
:1019200002F1080121F00701ADEB010D0DF1080AEC
:101930004146504605F0AAFA28684146D422343080
:1019400005F0A4FADBF8003002201A6807F148011C
:1019500087F848205A6887F849209A6887F84A200B
:1019600093F82C2087F84B205B69042287F84C30D1
:1019700097F84D3062F3060368F3C71387F84D30CC
:101980002B6842469B6A0093434601F039FD2B6861
:101990008DE8500003F134019A6A50464B4602F03C
:1019A0009BFA0546FFF750FEFFF7FCF968B945B909
:1019B0004F4B48461B6800961A685146234602F072
:1019C000E3FB7B6900259D46CEE07B699D460BE0ED
:1019D0000520FFF7ADFB98F86C3003F0FF052BB145
:1019E000424B002283F86C200225BDE0414B0422CB
:1019F000186807F1180103683B7643687B768368B3
:101A0000BB7690F82C30FB76436902203B777B7FD6
:101A100062F3060365F3C7137B7733682A469B6A34
:101A200000932B4601F0ECFC29464846FFF704FAE8
:101A30000546002840F09880C7F814D08CB007F114
:101A400034030DF108088CB018460DF1080B294637
:101A50008AB007F1200A14227B600DF1080905F015
:101A600015FA29465046142205F010FA2946484630
:101A7000282205F00BFA7B68C7F858A0DFF878A099
:101A80007B65DAF8003007F14800C7F850B0C7F8B6
:101A90005C90F968BA68C7F84C809861FFF7C4FA9F
:101AA00002F0ECFBD6F800B081469BF8E01120462E
:101AB00004F081F833688BF8E00193F8E031657346
:101AC000042B55461AD006D8032B19D1204603F013
:101AD000CAFF607314E0072B03D00B2B10D119231E
:101AE00000E0182363730BE009180000D0180020F1
:101AF000B8000020E4040020BC000020FFF7EAFD4D
:101B000001F034FD037843B901F036FD037803F0AA
:101B1000FF0213B96273FFF7DDFD637B6BB9174AF0
:101B2000126892F8E0110D2915BF012389F8E03001
:101B300089F8E03082F8E03108E001F001FD012889
:101B400002D12046FFF7ECFDFFF7C4FD637D33B102
:101B50002046FFF73BFE637DA375FFF7BBFD2B68B7
:101B600000259D617B699D463969054800F01CFF91
:101B700028466437BD46BDE8F08F00BFB80000209E
:101B800009180000014B1868704700BFA40200202C
:101B9000014B5868704700BFA4020020014B9868B1
:101BA000704700BFA402002070B53F4E0446336862
:101BB0000D469B69DB6833F91130002B0DDDC3F353
:101BC00007139A1DD2B2052A01D80F2306E00F335E
:101BD000DBB2012B38BF012300E00023237101F0A9
:101BE000BDFB10B1012815D070BD33689B691B691E
:101BF00033F8153063B19B08A3F1FD02FE3204D91E
:101C0000012B04D90233DBB202E0FF2300E00323FF
:101C1000637170BD326893691B6933F8153063B125
:101C20009B08A3F1FD01FE3104D9012B04D9023335
:101C3000DBB202E0FF2300E00323637193695E6976
:101C400006EB850090F9023090F9031090F901201D
:101C5000C91A16F92530D21A9142637911DD33B1D0
:101C600082205843642590FBF5F0C0B200E00120CB
:101C7000534393FBF1F10129B8BF0121A071E17138
:101C800070BD33B182205843642590FBF5F0C0B29B
:101C900000E001204B4393FBF2F3012BB8BF01237B
:101CA000A071E37170BD00BFBC00002010B50A4CEC
:101CB0002368986900F098F801F094FA23680128E5
:101CC000D969986903D1BDE8104000F045BCBDE872
:101CD000104007F073BE00BFBC00002010B502F03A
:101CE000CDFA90F82830044623B190F8C6300BB9ED
:101CF00003F06EFA94F8C63053B194F828303BB92B
:101D0000044BBDE810401B689869D96903F038BAE4
:101D100010BD00BFBC00002038B5044608200D46A9
:101D200001F09EFC80E8300038BD10B5082001F0BD
:101D300097FC07F025FE00F049F808F07BFC09F05D
:101D400081FB02F09BFA114C114B124AC0F8EC30A7
:101D50001268236810485A60DA601049FFF7DCFF08
:101D600023680F489A680F4901329A60FFF7D4FF41
:101D700023689A6801329A6002F080FA0A4BC0F830
:101D8000E4300A4BC0F8E83010BD00BFAC020020C0
:101D9000A91B0000A418002089420000AD1C00000F
:101DA000690D0000DD1C0000D522000001250000A7
:101DB00010B542B1594302FB0010D41800EB640087
:101DC00090FBF4F010BD084610BD000008B5782067
:101DD00001F046FC034B002118607822BDE8084062
:101DE00005F054B8481900202DE9F04F9BB00F9032
:101DF00002F026FA02F042FAA94B1B689B6A013BEB
:101E00005FFA83F8B8F1FF0F00F058820F99CB68A2
:101E100033F91830002B00F04E824B6853F828300D
:101E200014938B6853F8283015930C2303FB08F3A5
:101E300011939C4B119A1B681293134416934B6990
:101E400003EB88030693FEF75DFF089000F02EFC7D
:101E500002F0F6F9834602F011FA914BDBF80C2000
:101E60001B68012AB8BF01220E93DBF808300E9CD4
:101E7000012BB8BF012393FBF2F26368069D9B1A06
:101E80001793DBF81420DBF81030012AB8BF0122C9
:101E9000012BB8BF012393FBF2F2236895F903608D
:101EA0009B1A189395F9021000230D900B969C46EF
:101EB00003931F4605931A4604939A460B9DA94225
:101EC00000F39280069D069E149C95F9005096F9A9
:101ED0000160C4EB012002951396DDF80890139C75
:101EE000A1457FDC0E9D089CED68246A0795029E43
:101EF0000A94079C01364D1C06FB045510960A9E59
:101F00000995755D102D019530D9042515F1FF3522
:101F100065D3DFF89891029C15F90990079ECDF8DA
:101F20003090DFF88C9115F90990A14409FB0669FE
:101F30000A9C0C9E0C443444A14499F80190B9F1D8
:101F4000000FE3D00D9C4FFA89F9A14499F917903D
:101F5000C145DBD1089EDDF82490756A019C35F8F7
:101F60001950A4F1110695FBF6F60FE0019DB5B3EB
:101F7000DDF834902E464E4496F9175045452ED143
:101F8000089CDDF82490656A35F819603EB3159D0C
:101F9000DDF80890C5EB0924002C13DC0028C4F1FF
:101FA000000406DD049D06FB00AA06FB045504950B
:101FB00015E0DDF8149000FB162206FB0499CDF81D
:101FC00014900CE0002806FB04F405DC039D00FBE4
:101FD00016772544039502E006FB00CC2344109EAF
:101FE00002967AE7013169E7C2EB0A04CCEB0705F8
:101FF000E542604611460CD41A46049E039B0392A8
:10200000059ABC4604920746524605968A46002425
:1020100000E0012402EB0C015144C9193BD00598A2
:10202000DDF810901844039D4844401935D088428B
:1020300040D0814208DCCAEB02026244D21B22EA91
:10204000E27305460E460BE0059E049FDDF80C90FA
:10205000F21B1344C9EB030323EAE3730D46064660
:102060009B01B60196FBF5F60F4A93FBF5F53F2D64
:10207000A8BF3F253F2EA8BF3F26535D925D2D256B
:10208000C2F12D021A446B43814293FBF2F212DD3E
:10209000C2F15A020FE00A460DE05A220BE000BFDF
:1020A000E404002048190020C4060000A8720000C3
:1020B000A07200002D2204B15242129B11995A5471
:1020C000D2F15A0314D0B42B7E4919D05A2B07DC15
:1020D00031F81240039408D14FF6FF75059515E0CD
:1020E000504231F8100040420390592B0ADC02E0C4
:1020F0004FF6FF760396734A32F81320059205E0F7
:10210000714B03935A3231F812100591069F002348
:1021100097F9039097F90210CDF84C909C46184619
:102120009A461A46139CA14200F39C80149C069D7B
:10213000C4EB0124049495F90160DDF8109095F941
:102140000040059F039D07FB09F705FB09F5129663
:1021500010971195DDF848904C4500F381800E9F53
:1021600004F10109FF68089E0797079D4F1C09FBB2
:102170000577366ACDF828900996F65D1997102EE6
:10218000029630D90425013DEDB2FF2D66D0DFF86F
:102190003C91079F19F90590099ECDF82C90DFF826
:1021A00030910E4419F90590A14409FB07790B9F62
:1021B0003E44B14499F80190B9F1000FE3D00D9E6F
:1021C0004FFA89F9B14499F91790C145DBD1089FBD
:1021D000DDF864907D6A029F35F81950A7F1110669
:1021E00095FBF6F60EE0029D002D37D00D9F2E4692
:1021F0003E4496F91750454530D1089E199F756A9F
:1022000035F8176056B3159D039FA5EB042407FB13
:1022100004F5DDF840903244C9EB0505002D049D1E
:10222000DDF8449006FB05F706FB04F5CCBFBC4483
:10223000C7EB0C0C059FCCBF5B19C5EB030307FB79
:102240000495049F002D06FB04F406FB07F5C7BFA9
:102250000019AA44C5EB0A0AC4EB00000A9C79E7FE
:1022600001315FE7DBF800509AFBF2F49CFBF2F1DE
:102270006C436943179F90FBF2F03E0294FBF6F427
:1022800091FBF6F1DBF8046093FBF2F370437343C8
:10229000DDF86090169A4FEA092590FBF5F093FB64
:1022A000F5F340435B4304FB040401FB0131A4113B
:1022B00089115460916008F1FF33A1E51BB0BDE8BE
:1022C000F08F00BF060700000100FFFFA8720000AA
:1022D000A072000030B500230C7D1A46CD5C01339E
:1022E000A5421CBF0132D2B2132BF7D1022A10D85B
:1022F000012303700B7D03F0F902012A09D1032B9E
:1023000009D002D8012B0CD003E0052B05D0072BF8
:1023100005D0002030BD152030BD162030BD17205F
:1023200030BD142030BD0022F0B5054606461446E7
:102330001046777816F8013BFB1A5F1C03DB032B72
:1023400005DD083B03E01F1DB8BF0833012202333F
:10235000032B00F1010028BF01241228E9D12878BD
:10236000431E012B2B7D01D9082845D1012C0BD10F
:10237000042B0CBF10200020012C17D10C78142C3A
:1023800014D940F0200011E088780238012894BF69
:10239000802000200AE04C78052C31D8032831D069
:1023A000887800F0FD00441E60426041DC1E022C73
:1023B0001DD9EC7C023C022C05D80A78202A11D9C0
:1023C00040F008000EE0897801F0FD01012909D1F3
:1023D000591E012906D812B140F00200F0BD40F0AC
:1023E0000400F0BD072B0FD140F48070F0BD052B29
:1023F0000AD140F40070F0BD012CCCD10024B7E725
:102400004020D3E70020D1E7F0BD3C4B2DE9F04F51
:102410001C5C03EB800004FB04F2C6684FEA440C2A
:1024200006EB0C03E9B003EB42020020A04212DAF3
:102430000D7836F8108005EBC00505F10045013D2B
:1024400032F81570C8F10008C7EB080504AF47F86B
:1024500020500130EAE78A4668A909AF03919846FF
:102460000026A64231DA0025B9462846AB4628B9EF
:1024700038F8050059F8141C081A0FE038F805E080
:1024800059F8141C0192CEEB01010293CDF800C063
:1024900003F028FBDDF800C0029B019A0BF1010B51
:1024A000A34509F104096544E1DB9AF8011008F13C
:1024B000020801EBC60101F10041013932F81110A7
:1024C000401A47F826000136CBE7039914378F42AC
:1024D0000AF1010AC3D1002004AD0646A6420ADA79
:1024E00010B9D5F87C0103E0D5F87C1103F0FAFAB5
:1024F00001360435F2E769B0BDE8F08F206F0000C7
:102500002DE9F0410746FFF70EFF114D80460024EC
:102510004FF0FF360123A34003EA08032341012BB8
:1025200001D0284606E020463946FFF76EFF854277
:10253000F7DA264601340A2C01D00546EAE7054AB7
:102540009042A6BF0136F0B20020BDE8F08100BF86
:10255000806967FF6135FFFF2DE9F74F0446019160
:1025600001F07AFE824601F06BFE01F081FE064624
:1025700001F0CEF8804601F081FE474F71883B683C
:1025800000269B6A05465B00B346023B9A1C0AD0B4
:102590002269D25A9642B8BF1646E268D25E934587
:1025A000B8BF9346F1E798F804303BB18E4201DBA7
:1025B000012305E036B985F8DC6003E023780BB928
:1025C00085F8DC3095F8DC3043B195F8DD0028B9AA
:1025D0003249B52302460B7100F04CFF3B689F6AFD
:1025E00005EB870909F17C0917F1FF3749D3E36847
:1025F0004FEA470833F91730002B3FD000F0B0FF07
:10260000EA1992F96610C378E26801BB32F9080052
:10261000642101FB00FC4B439C4521690FDB9AF8C8
:102620007CC031F808300CFB06FCB3EBAC1F06DBBA
:10263000DAF8803003FB0BF3B0EBA31F1EDA0023A4
:1026400021F8083022F8083049F8043C13E032F948
:10265000081042F2107041439AF86C004343642022
:10266000434399420ADA2369002123F8081022F82B
:10267000081049F8041C2378013B2370A9F10409D0
:10268000B2E72378019A137095F8DC3085F8DD30D5
:1026900003B0BDE8F08F00BFE40400206305002014
:1026A000014B1860704700BF90180020014B18685C
:1026B000704700BF90180020014B1860704700BFA2
:1026C00088180020014B1868704700BF8818002048
:1026D000014B1860704700BF8C180020014B186830
:1026E000704700BF8C180020014B1868704700BF6E
:1026F000B0020020064B20F07F40013800225860D5
:102700009A6001221A6000BF1A68D203FCD5704794
:1027100010E000E0064B20F07F40013800225860B6
:102720009A6005221A6000BF1A68D203FCD5704770
:1027300010E000E0024B1B689B685843FFF7DABFCC
:10274000B0020020044B4FF47A721B689B68584318
:1027500090FBF2F0FFF7CEBFB0020020024B1B68E7
:102760005B685843FFF7D6BFB0020020044B4FF41C
:102770007A721B685B68584390FBF2F0FFF7CABFA0
:10278000B002002008B5054B5A6822F002025A60D8
:10279000FFF7AAFF0123037308BD00BF000002502A
:1027A00008B5054B5A6842F002025A60FFF79CFFD9
:1027B0000023037308BD00BF0000025008B5FFF7F7
:1027C00093FF007B08BD72B6044B1B5C1BB900BFB6
:1027D00062B630BFF7E762B6704700BF0000002066
:1027E000C0B2012803D8094B1B6818787047831EB4
:1027F000012B03D8064B1B68587970470438012811
:102800009DBF034B1B6898790020704788180020F3
:102810008C1800207047704770477047014B1B6849
:1028200018787047881800204FF0405070470148D2
:10283000704700BF00A000300048704700800030A3
:10284000004870470040003000207047C0B200F0E0
:102850001BBA7047F8B5044601F0F2FC104B1A6839
:1028600000235068471C9F4216680ADBD568002188
:1028700006FB05551D4444F8231044F82510013388
:10288000F1E701239E420ADBD56800215D4344F84D
:1028900025100544013544F825100133F2E7F8BD51
:1028A000E4040020024BB3F87C00C0F3072070471B
:1028B0000000105040BA80B2704700BA7047284BF1
:1028C0002DE9F7431D6800269846264F264CBD4249
:1028D0001FD280377F1B832FD4BFBF102027012337
:1028E000677000202A462049BF10E370207100F075
:1028F000C1FD2B463A4612F1FF3207D326B91968BB
:10290000B1F1CD3F18BF1E460433F4E705EB870550
:10291000DBE7D8F8003002ADF31A45F8043D4FF07C
:1029200001094FF00408A72321462A4600208437D6
:10293000237184F8019084F80380BE1B00F09AFD97
:10294000A823002021462A46019684F8019084F8A5
:102950000380237100F08EFD03B0BDE8F08300BF5B
:10296000A4180020807F0020B4020020F8B505469E
:10297000FFF714F9066807460024B4420ED006F1AA
:1029800000537A68013B1B1B02EBC30152F8333042
:10299000AB4201D14B6898470134EEE7014B013D52
:1029A0001D60F8BD94180020F8B50546FFF7F6F84D
:1029B000866807460024B4420ED006F10053FA6838
:1029C000013B1B1B02EBC30152F83330AB4201D178
:1029D0004B6898470134EEE7014B013D1D60F8BD9F
:1029E00094180020034B01221A70034B00221A6036
:1029F000704700BF0000002000000850034B012278
:102A00005A70034B00221A60704700BF000000207C
:102A100000000950034B01229A70034B00221A60F8
:102A2000704700BF0000002000000A50034B012245
:102A3000DA70034B00221A60704700BF00000020CC
:102A400000000B500C4B00211A790C4B1201D2B232
:102A500083F8042310221A60094B4FF47A721B6822
:102A60009B685343074A93FBF0F0074B5860117083
:102A700001221A60704700BFB406000000E100E0C8
:102A8000B00200200000002000000850044B10227B
:102A9000C3F88021C3F88020024B00221A607047DF
:102AA00000E100E000000850114B10B51A79114BFD
:102AB0001201D2B283F8042310221A600E4B4FF495
:102AC0007A721B689B6858430C4B90FBF2F0012212
:102AD00058601A600A4A002313701446227832B9EB
:102AE000002BFBD1012000F07FFA0123F6E710BD97
:102AF000B406000000E100E0B00200200000085031
:102B0000000000200C4B00215A790C4B1201D2B26C
:102B100083F8052320221A60094B4FF47A721B6850
:102B20009B685343074A93FBF0F0074B5860517082
:102B300001221A60704700BFB406000000E100E007
:102B4000B00200200000002000000950044B2022A9
:102B5000C3F88021C3F88020024B00221A6070471E
:102B600000E100E0000009500C4B00219A790C4B69
:102B70001201D2B283F8062340221A60094B4FF4A7
:102B80007A721B689B685343074A93FBF0F0074B2C
:102B90005860917001221A60704700BFB4060000AF
:102BA00000E100E0B00200200000002000000A5018
:102BB000044B4022C3F88021C3F88020024B00223E
:102BC0001A60704700E100E000000A500C4B002141
:102BD000DA790C4B1201D2B283F8072380221A60F3
:102BE000094B4FF47A721B689B685343074A93FB67
:102BF000F0F0074B5860D17001221A60704700BF97
:102C0000B406000000E100E0B00200200000002057
:102C100000000B50044B8022C3F88021C3F88020B1
:102C2000024B00221A60704700E100E000000B50E8
:102C3000084B0022B0F1807F9A7209D2064B01380E
:102C400006495860F02081F823009A6007221A6034
:102C5000704700BF0000002010E000E000ED00E041
:102C6000014B00221A60704710E000E0054B002283
:102C70005A714FF080431A68012161F307021A600C
:102C8000704700BF000000204FF08043D8727047AB
:102C9000044B012283F86620034B1A6A42F48052E7
:102CA0001A627047D018002000000250044B002226
:102CB00083F86420034B1A6A42F400521A62704788
:102CC000D01800200000025070477047704738B598
:102CD000174C03F0BFFA94F86420164B22B9164A39
:102CE0005268C2F300321A711879A36D5330C0B222
:102CF000984794F864300F4D0133DBB284F86430A8
:102D000003F0B4FA94F8642094F867309A4209D337
:102D1000EB7823B12B79DBB26B710123AB7000230D
:102D200084F86430044B1A6A42F480421A6238BD57
:102D3000D01800209818002000000250062390FBB5
:102D4000F3F2012103FB120201FA00F010B50C4B63
:102D500008321C69D2B204431C615C6904435C61A3
:102D60009C6924EA00009861064B9C5C064B240198
:102D7000981801FA02F2E4B280F800431A6010BD1C
:102D800000000250B406000000E100E0704770B59A
:102D9000294D2B7803F0FF04002BF9D1274B012696
:102DA0006C702E705E6400BF988200BF986962F3F9
:102DB0000B00986100BF4FF4C040188200BF986CB0
:102DC00064F3C710986400BF986C64F3861098642D
:102DD00000BF986C64F34510986400BF986C64F36E
:102DE0000410986400BF986C64F3C300986400BF3B
:102DF000986C64F38200986400BF49B90F4B9A6CD9
:102E000042F001029A6400BFBFF36F8F1A4609E0D7
:102E1000631CE4B29442F1D20E5D094820F81460BC
:102E20001C46F5E7136D002BFCD100BF034A536429
:102E300000BF2B70012070BD9818002000000150C9
:102E40000060003070B52F4C237803F0FF05002B95
:102E5000F9D12D4B6570012525705D6400BFDD7BC8
:102E60001DB900BF40F0800002E000BF40F4004008
:102E7000988200BF244B551C986965F30B0098613C
:102E800000BF4FF4C040188200BF986C40F0800033
:102E9000986400BF986C6FF38610986400BF986CBC
:102EA0006FF34510986400BF986C6FF3041098643A
:102EB00000BF986C6FF3C300986400BF986C6FF309
:102EC0008200986400BF986C40F00100986400BFD5
:102ED000BFF36F8F1846036D002BFCD100BF581C49
:102EE000DBB2934206D2094D5E1C35F81650CD5424
:102EF0000346F4E7044A0023536400BF2370012013
:102F000070BD00BF98180020000001500060003024
:102F100030B5324A137803F0FF05002BF9D1304B5E
:102F20000124147055705C6400BFA0F5D444012CDA
:102F300094BF4FF46A4440F400449C8200BF9C69F3
:102F400061F30B049C6100BF0021197200BF254989
:102F500046F6012391F8641098424FF0440303FBB6
:102F600001F11F4B4FF018000CBF01F5405101F566
:102F70000051187100BF2420587100BF986C6FF386
:102F80004510986400BF198200BF996C41F0800120
:102F9000996400BF996C6FF38611996400BF996CB6
:102FA0006FF30411996400BF996C41F008019964B2
:102FB00000BF996C41F00401996400BF996C41F025
:102FC0000101996400BFBFF36F8F196D0029FCD117
:102FD000034B01205964117030BD00BF98180020C8
:102FE00000000150D0180020012815D01BD3022862
:102FF0001AD1144B1A6942F480321A610022DA7035
:103000004FF0A0435A8B92B232B901221A74BFF327
:103010006F8F00BF00BFF3E70B4B1A6942F0040249
:103020001A61BFF36F8F30BF431E012B09D80228EE
:1030300002D1044B0122DA70034B1A6922F0040218
:103040001A6170470000105000ED00E0014B18605D
:10305000704700BFA0180020014B1868704700BFE0
:10306000A018002073B5FDF72FFE064601F0E8F822
:103070000446FFF71BFB1A4900238DE80A00194993
:1030800002460869082313F1FF3303D31DF80350E8
:10309000C554F8E70D6900232B72086804236B728E
:1030A000334606F1100553F8046BAB4240F8046B4D
:1030B000F9D10B6821881982A18859820A490968C7
:1030C00091F82C1019B191791975517902E0517963
:1030D000197591795975D2799A7502B070BD00BF92
:1030E0004D49500020000020E4040020084A09490E
:1030F000936A5B78DBB2012B0B7202D0022B02D0F9
:103100007047FFF73FBB536A01225A70704700BFF8
:10311000C40200206C050020094B10B51B7A094C35
:10312000012B05D0022B05D1636A00225A7001E001
:10313000FFF736FB63691A786FF306021A7010BD49
:103140006C050020C4020020F8B5174C0025174E6E
:10315000337A012B06D016D3022B15D1144B5B6AA0
:103160005D7811E0FFF72AFB054654B9FFF718FB1D
:1031700040F22D13013B01D000BFFBE7FFF702FB3C
:10318000094C013C00E00025094F327ABB6A5B78AC
:103190009A4206D0FFF7C0FFBB6A5A78034B1A72F7
:1031A000F8BD002DD3D1F8BDFF2C01006C05002027
:1031B000C4020020014B9B6A18787047C4020020AB
:1031C000014B9B6A58787047C4020020014B9B6AF0
:1031D00098787047C4020020014B9B6A9870704732
:1031E000C4020020014B9B6AD8787047C4020020BB
:1031F000014B9B6AD8707047C4020020014B9B6A48
:1032000058687047C4020020024B9B6A5A68586095
:10321000704700BFC4020020014B9B6A187A7047B8
:10322000C4020020014B9B6A18727047C402002040
:10323000014B9B6A587A7047C4020020014B9B6A7D
:1032400058727047C4020020014B9B6AD87A7047BD
:10325000C4020020014B9B6AD8727047C402002050
:10326000014B9B6A987A7047C4020020014B9B6A0D
:1032700098727047C4020020014B9B6A187B70470C
:10328000C4020020014B9B6A18737047C4020020DF
:10329000014B9B6A587B7047C4020020014B9B6A1C
:1032A00058737047C4020020014B9B6AD87B70475B
:1032B000C4020020014B9B6A187C7047C4020020A6
:1032C000014B9B6A587C7047C4020020034BA0222C
:1032D0005B6A1A701A78A02AFCD07047C4020020DA
:1032E000034BC2B25B6A1A701A788242FCD07047F4
:1032F000C4020020014B1B6B18707047C4020020F1
:10330000014B1B6B18787047C4020020014B1B6BEC
:1033100058787047C40200200E4B70B51A6BFF241A
:1033200014700D4C586321608478067805794079D3
:1033300006FB045400F07F00604399680860596AF6
:10334000A0200870996A1378FF2B02D10B78022B0A
:10335000F9D070BDC40200206C050020014B1B6831
:1033600018887047A018002008B5FFF7EDFE024B43
:103370000022DA6008BD00BF6C05002070B5074B65
:10338000074C1A69E6689579014698692A463044DF
:10339000354403F005FDE56070BD00BFC4020020A8
:1033A0006C050020074BDA685AB1074BD2B2596955
:1033B000087800F07F0062F3060008709A77FFF744
:1033C00095BE70476C050020C4020020F8B50B4C78
:1033D00005460F46FFF7B8FE6369F9B21A78A66989
:1033E00062F07F0261F30602A5611A70A177FFF710
:1033F0007DFEFFF7A9FEA661F8BD00BFC402002054
:1034000037B58DF80720194AD46B257885422BD122
:10341000FF20207093640DF10700D36F50649DF876
:1034200007009B688000116418711148069B0C7995
:10343000036088780D78497905FB004001F07F0131
:10344000414393681960536AA0211970D16B936A44
:103450000A78FF2A02D11A78002AF9D00A78FF2ABE
:1034600002D11A780B2AF3D003B030BDC402002079
:103470006C05002070B5104CD4F89C301D79EDB26D
:10348000012D18D185401E68354214D0FF201871D7
:103490000A48C4F8A010026088780D78C97868439B
:1034A00001F07F014143A2681160626A77211170C7
:1034B0001A79FF2AFCD070BDC40200206C050020E0
:1034C000024BD3F8A4301878704700BFC402002024
:1034D000024BD3F8A4301870704700BFC40200201C
:1034E000024BD3F8A4305878704700BFC4020020C4
:1034F000024BD3F8A4305870704700BFC4020020BC
:10350000024BD3F8A4309878704700BFC402002063
:10351000024BD3F8A4309870704700BFC40200205B
:10352000024BD3F8AC301878704700BFC4020020BB
:10353000024BD3F8AC301870704700BFC4020020B3
:10354000024BD3F8AC305878704700BFC40200205B
:10355000024BD3F8AC309878704700BFC40200200B
:10356000014BD3F8B0007047C4020020014BD3F8E0
:10357000B4007047C4020020014BD3F8B800704774
:10358000C40200200023B2F5704F0360F0B50B6059
:1035900039DA1412122C1C4B1CD803EB8403DC6C9C
:1035A000002C30D0E368013B5F1C12D06768D5B2B5
:1035B000FF5C1E46ED1B03F1FF33F5D4236853F87F
:1035C000263003B32B440360A3689B5D5D1B0D6035
:1035D000F0BDF0BDDD685E686C1E06EB4505661C3F
:1035E00011D035F8026D2746961B04F1FF34F6D44E
:1035F0001A6852F82720324402609B6853F827303B
:103600009E1B0E60F0BDF0BDC4020020B0F5C06F7F
:10361000094B06D15B6A1A78052A0CD005221A706C
:1036200070475B691B7803F07F0303F504739842CE
:1036300001D1FFF771BD7047C402002010B5884268
:10364000029C09DB904209DAE41A401A6043511ADD
:1036500090FBF1F0184410BD184610BD204610BD77
:10366000044A0330136820F003011944116018461E
:10367000704700BFA418002070B5154601244E1EE7
:10368000B44203DA35F9026FB0420FDA6500023D49
:1036900033F9141032F914405B5F001BCB1A584306
:1036A000535FE41A90FBF4F0084470BD0134E6E780
:1036B000014B1860704700BFB8180020014B186814
:1036C000704700BFB8180020014B1860704700BF5A
:1036D000AC180020014B1868704700BFAC180020E0
:1036E000014B1860704700BFB4180020014B1868E8
:1036F000704700BFB4180020014B1860704700BF2E
:10370000B0180020014B1868704700BFB0180020A7
:10371000014B1868704700BFE804002073B50646E7
:103720000D461B4871467446FFF720F9194B1A687D
:1037300096F82A30917B4B4329689B118B42B8BF86
:103740000B46917A4B4314499B1191F86800019301
:1037500010B9127A934207DB91F868202AB10F4A18
:103760001268527D934200DA01920D4901224A709B
:103770008422CA701F220A71062001AAFFF77AFE6E
:1037800003482146019DFFF70FF9284602B070BD9E
:103790001D370000AC180020D0180020B4180020FD
:1037A000B40200202DE9F84F3A4D0C4617469B46CF
:1037B0008246FDF789FAFDF793FAFEF777FF2B684B
:1037C00035495B6902204B700423CB703A465A237B
:1037D0000B71FFF74FFE002384F82A302B682F4926
:1037E0005D692F4BAA00D3F800C02E4B0E68D3F8AA
:1037F00000800AEB45000BEB020389463A4415F1C1
:10380000FF353BD3284F52F8041D97F868703FB935
:1038100037782FB10CEB050797F88072794389113F
:1038200053F8047DB1EB174112D4777AB942A4BFA3
:10383000012788F8047096F90B70B94214DBC7EBC6
:10384000010A2768574427606769013767610BE001
:1038500096F90D70B94207DCC7EB010AA768574417
:10386000A760A7690137A76120F8021D94F82A70A4
:10387000B942B8BF394684F82A10C0E7D9F80030F9
:1038800094F82A001B79984234BF00200120BDE83B
:10389000F88F00BFE4040020B4020020AC18002020
:1038A000B0180020E8040020D01800202DE9F04FC7
:1038B000BD4E91B00C4606920F930E90FDF704FAA0
:1038C000FDF70EFA3368B9491A681B790A704B7014
:1038D0008B700423CB7002205123069A00250B71B4
:1038E000FFF7C8FD7F2384F8243084F8263029466A
:1038F000402284F8255084F8275004F1540003F046
:10390000C5FA2946282204F12C0003F0BFFA294603
:1039100004F19400402203F0B9FAA54B93F8683003
:1039200003F0FF011BB9A348502203F0AFFAA24BEA
:1039300036681B68326807937368013A013BDBB253
:1039400009939E4B52B21D689D4B501C1B6804EBA3
:10395000420E0A939B4B4FF0000B1B680EF12C0E8E
:103960000493944BDA4603EB80006FF00303534358
:103970000C9393000D93002AC0F24C81099FDDF84F
:1039800030C079B204EB4103DDF834905433844401
:103990000593CC440029C0F23881B368069F03FB2D
:1039A000021857F82830824F97F8687057B92F7867
:1039B00047B1DDF81C9019F808707B430A9FBF6877
:1039C0007B431B130F9F57F82870A3EB17430E9FE1
:1039D000002B27F81830764F97F86870C0F2F48003
:1039E000E7B995F90B80434518DB2768C8EB030856
:1039F00047442760676901376761BEF8687001371F
:103A0000AEF8687095F90C9095F90B804B45676896
:103A1000D4BFC8EB0308C8EB090827E0644F97F848
:103A200068702FB3049F97F91E80434520DB2768F9
:103A3000C8EB030847442760676901376761BEF830
:103A400068700137AEF8687095F90C70BB42676812
:103A50000397049F97F91E80CABF049FC8EB030811
:103A600097F92090039FC8BFC8EB090847446760D7
:103A7000E768BB4206DD5FFA81F9D7B2CDF82C903A
:103A80000897E360DFF8289199F86880B8F1000F93
:103A900004D0049F97F8158043454DDA99F8687073
:103AA000002F63D12F7ABB4260DB4FF0010909FA86
:103AB00001F85CF8047C48EA0707029711B94CF852
:103AC000047C1AE04F1E09FA07F9029F49EA07072A
:103AD0004CF8047C3AB150F8087C48EA070747EAFA
:103AE000090740F8087C3768013FBA4205DA0768E1
:103AF00048EA070747EA090707607768013FB942C4
:103B00001ADA4F1C4FF0010808FA07F85CF8047C39
:103B100047EA08094CF8049C2AB150F8087C47EAA7
:103B2000080940F8089C376807F1FF394A4503DA6D
:103B3000076847EA0807076094F927700BF1010B43
:103B40008F4294F92670B8BF84F827108F4294F9F9
:103B50002570C8BF84F82610974294F92470B8BF26
:103B600084F825209742C8BF84F82420059F1FFAB7
:103B700083F9B7F80080C844A7F80080BEF8008039
:103B800009EB0807AEF80070094F97F86880B8F1A4
:103B9000000F03D195F80480434502DD97F8687063
:103BA00077B39A442CE000BFE40400205C050020B9
:103BB000D0180020DC0A0020B0180020AC1800202B
:103BC000E8040020B41800201FB995F90D80434582
:103BD00008DD384F97F8687067B1049F97F91F8028
:103BE000434507DCA768C8EB03084744A760A769FB
:103BF0000137A7612769C3EB0A0ABB42B8BF23613B
:103C0000059B0139023B0593C4E6013AAEF1020E71
:103C10000438B0E6284B294D1B6822461B69012653
:103C20009AFBF3F342F81C3F8423EB703046762373
:103C300029462B716E70FFF71DFCFE233046294686
:103C40001F4A2B716E70EE70FFF714FC94F925205B
:103C500094F924300B9F9A421A4BDDF820901B6890
:103C6000B8BF0022C4F820B0ACBF1E711A7184F82E
:103C7000287084F82990FFF7B5FAE36838B9124A3A
:103C8000126811798B420FDAB2F9063006E00F4A5A
:103C90001268917E8B4207DAB2F91C302069984293
:103CA000CCBF0020012000E00120C0B211B0BDE86F
:103CB000F08F00BFD0180020E4040020B4020020E0
:103CC00035190020E8040020AC180020B4180020AA
:103CD0002DE9F74F01915F495F4D0F685F4995F8F6
:103CE000685009680446D269F878C96815B15C481B
:103CF0000068407E8240012AB8BF01224A4392FBFD
:103D0000F3F3584A584D16684FEA430C32689B004B
:103D1000511E4901681805F5207500930D4412F1F4
:103D2000FF32C0F0818071684FEA820911F1FF31E2
:103D300077D3B368DFF820A103FB02189AF868B0C4
:103D4000019B33F918E0BBF1000F09D0736803FB46
:103D5000021854F828300CFB0E3E44F828E0E5E742
:103D6000DFF80CB159F80BB02BFA01FB1BF0010F77
:103D700022D197F804B0DE451EDAB7F906B0DE4569
:103D80001ADD54F828300CFB0E3E44F828E09AF86F
:103D900065E0BEF1000F07D110F801E0BEF1FF0FA2
:103DA000C4D00EF1010E22E015F801E0BEF1FF0FC4
:103DB000BCD00EF1010E31E0DFF89CA09AF865A0AE
:103DC000BAF1000F16D110F801A0BAF1000F0CD112
:103DD00015F801A0BAF1050F07D954F82830DDF81D
:103DE00000A00AFB0E3E44F828E04FF0000E00F859
:103DF00001E09BE715F801A0BAF1000F0CD110F813
:103E000001A0BAF1050F07D954F82830DDF800A059
:103E10000AFB0E3E44F828E04FF0000E05F801E0E2
:103E200084E72038203D7AE7104D1023AB713368CA
:103E300004202B70337929466B70AB7022466023C7
:103E4000E8702B71FFF716FB00230120AB7103B064
:103E5000BDE8F08FAC180020D0180020E804002046
:103E6000B4180020E4040020DC0500205C050020DC
:103E7000DC0A0020F8B5154B06461B68DB6893FB8F
:103E8000F2F2134B1B685B6900EB830401EB430107
:103E90001D4615F1FF3508D331F9027D54F8040CA5
:103EA00002FB170044F8040DF3E70A4C1022A2713C
:103EB00063700420612321463246E0702371FFF7CE
:103EC000D9FA0023A3710120F8BD00BFE804002047
:103ED000E4040020B40200202DE9F04F91B00C461C
:103EE0009DF86C509DF8686004938146089200F03C
:103EF000C5F9DFF890A24FF0000B7F2280F8E0B008
:103F000084F8242084F82620DAF8002084F825B0EC
:103F100084F827B0984F92680421BA70FA788046E6
:103F200061F306026BF3C712FA70A0223A71022005
:103F30003946089A3E707D70FFF79CFA8F4A049BC1
:103F400012684FEA450C06926FF003026A430B9227
:103F5000AA0006FB02326FF001036B4306FB0C9CC8
:103F6000DAF800100D930A9105923346584613F182
:103F7000FF3367D305992A46E346079112F1FF32D2
:103F800057D3079951F804ED07910A99896801FB05
:103F9000032A089951F82AA00699AAEB1E4EBEF1F1
:103FA000000F2BF802ED30DB91F91EA0D64504DBA3
:103FB0002168CAEB0E0A51442160069991F800A0CD
:103FC000D64520DB94F92710914294F92610B8BF0A
:103FD00084F82720914294F92510C8BF84F8262040
:103FE000994294F92410B8BF84F825309942E168C9
:103FF000C8BF84F82430714505DAD1B20C91D9B22A
:104000000991C4F80CE07044B8E791F91FA0D645B7
:1040100007DCA168CAEB0E0A5144A160A169013115
:10402000A1612169CEEB00008E45B8BFC4F810E055
:10403000A4E7059ADDF82CB0DDF834E05A44059287
:10404000F44494E705FB06F24D4BE1681B6890FBD6
:10405000F2F0002918604BDD484B94F825E094F805
:1040600024C01B680EF1010ECCEB0E0E93F813C0AA
:104070005FFA8EFEF44594F8270094F8262035D395
:104080000130821A93F814E0D2B296452ED393F8F9
:1040900001A01A46D01A50451EDADDF830B092F869
:1040A00002C04FFA8BF0013210EB0C0092F809E0DD
:1040B000F0D4A842EEDADDF824B04FFA8BFC1CEB0A
:1040C0000E0EE7D4B645E5DA0EFB050E39F91E00F3
:1040D0000028C8BF0918DDE798F8DC205AB99B7C96
:1040E000994208DD012388F8E03004E0012300E074
:1040F000002388F8DC3023494FF002080B680120C8
:104100009A690EA98DF83820DA698DF839201A6A73
:104110008DF83A2093F82C205B698DF83B208DF8C0
:104120003C30002248F080038DF83D30CDF80090FF
:104130001346FFF765F948F08008A1230E494A4667
:1041400001203B713E707D70BD7087F80380FFF7E2
:1041500091F90A4BE2681B68997E8A4207DA206966
:10416000B3F91C309842CCBF0020012000E00120B0
:1041700011B0BDE8F08F00BF5C050020B41800202E
:10418000E8040020E40400202DE9F74F8446264887
:104190009DF83040056825486FF00108006808FB6D
:1041A00004F9067E2868ED68B0400128B8BF0120F8
:1041B000684390FBF2F26FF003006043A6000190A9
:1041C000600003FB06C604FB088803FB00111F46C2
:1041D0004FF0000E17F1FF3712D30EEB010A002546
:1041E000023D454508D03AF905B056F8150002FBE6
:1041F0000B0046F81500F3E70198CE440644E9E7C2
:104200000B4D1022AA712B700420602329466246B0
:104210002B716C70AC70E870FFF72CF90023AB7158
:1042200003B0BDE8F08F00BFE8040020B418002000
:104230005C050020014B1860704700BFC0180020CB
:10424000014B1868704700BFC0180020014B186070
:10425000704700BFBC180020014B1868704700BFB2
:10426000BC180020014B1860704700BFC418002024
:10427000014B1868704700BFC4180020014B186834
:10428000704700BFEC0400202DE9F84305460F46B7
:104290001F487146F0461646FEF768FB1D4B1B682B
:1042A00093F82830013BDBB2FF2B29D0FA685C0081
:1042B00032F91310D5F804909A00D6F804C0A86813
:1042C000B1B1E96831F9131091B1796859F80290E8
:1042D000095F8058C1EB090109EB6109B9682CF845
:1042E0000490095FB268411A00EB61001053D9E7EE
:1042F00059F8021082582CF80410B1680A53D1E71B
:104300002B78414633700248BDE8F843FEF74CBBBA
:1043100089420000E404002070B504460E461048AF
:1043200071467546FEF722FB0E4B1B6893F82C1066
:1043300093F82D2031B1218830882080318042B11E
:104340001B6801E02AB15B682288013BC2EB0323B2
:10435000238029460248BDE87040FEF725BB00BF18
:1043600019430000E404002038B5064D7446284681
:104370007146FEF7FBFA28462146BDE83840FEF7B5
:1043800013BB00BF694300002DE9F04F714606469C
:104390008FB04C48F046FEF7E9FA4B4B38251B68C6
:1043A0006C465F79494B1B6805FB07351C350FCD03
:1043B0000FC40FCD0FC40FCD0FC495E8030084E8E0
:1043C0000300434935680A688A4692F82C307468BD
:1043D00006CA33B101F1FF3B4FEA0B2B02F1FF3963
:1043E00005E002F1FF3B4FEA0B2B01F1FF39012FF2
:1043F0004FEA09295FD0FF2D12DC2846009901AA57
:1044000013B10DF1220301E00DF10E03FFF734F9B2
:10441000A5F5807500B24543AD1105F5807515E031
:10442000C5EB0B07FF2F11DC3846009901AA0BB131
:104430000BAB00E006ABFFF71FF9A7F5807705B2DD
:104440007D43AD1105F58075C5EB0B05FF2C15DC23
:10445000DAF80030204693F82C30009901AA0BB10D
:1044600006AB01E00DF12203FFF706F9A4F5807415
:1044700000B24443A41104F580741AE0C4EB0907A8
:10448000FF2F16DCDAF80030384693F82C3000990C
:1044900001AA13B10DF10E0300E00BABFFF7ECF82E
:1044A000A7F5807704B27C43A41104F58074C4EBB3
:1044B00009043560746003484146FEF775FA0FB091
:1044C000BDE8F08F89430000EC040020C0180020F4
:1044D000E40400200C4B10B51A68002382F8AE30BB
:1044E0000A4B1B681B7D013BDBB2FF2B0BD030F866
:1044F000134021B2002903F1540102EB4101D8BF5E
:1045000000240C81EFE710BDEC040020E40400203F
:1045100010B58B7890F902405AB29442C8BF8370AC
:10452000CB7890F903405AB29442B8BFC3700B786D
:1045300090F900405AB29442C8BF03704B7890F98A
:1045400001105AB29142B8BF437010BD2DE9F04F2F
:1045500089B003934B1C46680793C36856F82170D3
:1045600033F911C04D0007FB0CFA069556F822707E
:1045700033F91250139C07FB05AA0CEB05089AFBB4
:10458000F8F73FB246F8217086684FEA420B56F8BA
:1045900021704FEA820907FB0CFC56F822708B0051
:1045A00007FB05C595FBF8F73FB246F82170039F5E
:1045B00005693E6845F82160C56835F8117035F821
:1045C00012603E4425F81160002625F81260456906
:1045D00035F8126035F911C037B2BC450EDA25F84E
:1045E00011608569DDF818A005EB0B067678554457
:1045F0006E70856915F8126005F81160561C0F2E53
:104600004FF001080BDC08FA06F854F8095001369F
:1046100008EA0508E55845EA0805E550EFE708FA15
:1046200002FC08FA01F8002544F822506FEA0C0950
:10463000274695421CDA57F8046B16EA0C0F15D082
:104640008D4204DA46EA080647F8046C08E007DD04
:104650004FF0010A0AFA05FAE65846EA0A06E65059
:1046600057F8046C06EA090647F8046C0135E0E7E0
:10467000039C94F900400494039D049E95F9014025
:10468000A64200F3AD80039D95F90280039FDDF8FB
:10469000109097F9034009F10105A04500F39E80B1
:1046A000634C129F2468E46805FB048501357E5D38
:1046B0000594013E112E0195029640F38C804FF037
:1046C000FF3C0027042414F1FF3426D3DFF864B143
:1046D000DDF8109014F90BA0059DCA440BF1080BEE
:1046E0000AFB055A14F90B90DDF848B0C344DA44CC
:1046F000CA449AF8019009F1FF39B9F10F0FE2D8D5
:10470000894501D09145DED1BCF1FF3F03D0CC45B6
:1047100018BF0127D7E7CC46D5E7002F5BD0029E14
:10472000122E54D1079FDDF848A0DDF80490042430
:104730000AF8097014F1FF344DD33E4DDDF810C076
:1047400005F1080614F905A0394D14F906B02D68D5
:10475000E244EE68C3440AFB0666129F01365E44DB
:10476000BD5D002DE6D1149F37F81650002DE1D025
:10477000DDF84890122709F80670C768069E05FB09
:104780000BFBBE5BD0F804C00FFA86F905965CF807
:10479000036005FB0AFA4FEA0B2B06FB09BB866890
:1047A0004FEA0A2AF75807FB09A9DDF814A0069F6B
:1047B0005544D0F80CA0ADB22AF807502DB29BFB9F
:1047C000F5FB99FBF5F74CF803B0F750B2E7029C04
:1047D000129E019D745508F1010857E704954BE7B7
:1047E00095F90010039E96F9013099421DDC039F54
:1047F00097F90230039D95F90300834201F101000E
:1048000011DC0B4CDDF848902468E46804FB0030B0
:10481000013019F800400133013C944204BF079C69
:1048200009F80040E6E70146DCE709B0BDE8F08F93
:10483000E4040020A07200002DE9F04F8DB0089133
:10484000064671464048F24609929846FEF78EF8B1
:104850000024F368620033F91430002B6AD0B36986
:104860001A4492F9012013F81430069207934FFA74
:1048700083FC02F1FF39DDF818E00EF1010BD94598
:1048800058DC0CF1FF370CF101039F424FDC2F4B3A
:1048900008991B68DB6809FB0332501C38440D5C27
:1048A000013D0F2D41D8AC423FD07169DFF8A0E047
:1048B00031F9141038F81000DEF800E08142BEF83B
:1048C00008E032DC0EFB01F1DDF81CE089114FFA43
:1048D0008EF00244013238F81220914225DA0BFBA7
:1048E0000373013338F8133099421EDAA54202DB14
:1048F0002B4625461C46316951F8240001EB850101
:104900000B900BA8CDF814C0FFF702FE0899099B85
:10491000009101932246CDF80880304629460BAB22
:10492000FFF714FEDDF814C02C460237ABE709F19F
:104930000209A0E701340F2C8BDD03485146FEF736
:1049400033F80DB0BDE8F08F39480000E4040020D2
:10495000BC1800202DE9F04F9FB008930546079141
:104960000F92FFF769FF289B1B78012BA94B09D1F8
:104970002A78012A06D91B68B3F804C0DB88CDF871
:104980002CC005E01B68B3F800C05B88CDF82CC0D4
:104990000C930F24631E002C00F070810F982646A4
:1049A00050F82320E2401C46059205980028F1D0DB
:1049B000102EEFD00599CB0740F15B816B68A96899
:1049C00053F8242053F826304FEA8408D21A51F8BD
:1049D000243051F8261082EAE27CACEBE27C5B1AD0
:1049E00083EAE370A0EBE3708445D4BF002101218A
:1049F000B700CDF818C004900A9121B11B0293FBB7
:104A0000F2F3099303E0120292FBF3F2099229698F
:104A1000C8594144149014A8FFF77AFD6968EA6800
:104A200051F808E032F91630CDF860E0C85932F993
:104A300014201A9002FB00FC03FB0ECED1189EFB43
:104A4000F1FEA868CDF864E050F808E0CDF86CE01D
:104A5000C059424303FB0E2292FBF1F11C911D90C1
:104A60000C2215A8002102F011FA9DF952309DF98F
:104A700051201193684B9DF953C01B689DF95080DC
:104A80001092CDF848C013931098804500F3A98088
:104A90004FEA0820119B0E90DDF848C008F1010193
:104AA000634500F39C80139A0798D2F80CC001FB71
:104AB0000C310131405C421E0F2A0D903EDD002773
:104AC0004FF0FF30BE46042212F1FF3226D3DFF84A
:104AD00050B112F90BA00BF1080BC2440AFB0CCA2F
:104AE00012F90B90DDF81CB09B44DA44CA449AF8E2
:104AF000019009F1FF39B9F10F0FE5D8A14501D0B7
:104B0000B14507D1B0F1FF3F06D0484518BF4FF07F
:104B1000010ED9E70127D7E74846D5E701305CD039
:104B2000BEF1000F10D17FB10898DDF834C030F825
:104B30001120ACF1110192FBF1F008E0501C4CD0B7
:104B4000A24201D0B24248D1089A32F8110000289E
:104B500043D01F0200210A9AA2B11BAA0A44DDF821
:104B600038C092680DF1600EC2EB0C02DDF824C073
:104B70008E4402FB0CF2DEF808C0ACEB222CC7EB33
:104B80000C0C11E018AA0A449268DDF824C0BA1A85
:104B900002FB0CF20DF16C0E8E44DEF808C0ACEB9B
:104BA000222C0E9AC2EB0C0CBCF1000FB8BFCCF15A
:104BB000000CBCF1FF0F0CDCCCF5807C0DF1540E29
:104BC0000CFB00FC8E44DEF8082002EB2C22CEF811
:104BD0000820043911F10C0FBDD101335CE7884680
:104BE00052E7179B159A9A42A8BF1A460A9B23B907
:104BF000049BBBB10698069304900499DDF818C095
:104C00008B0193FBFCF305493F2BA8BF3F23CB5CF3
:104C100009E000BFBC180020E4040020C406000026
:104C2000A0720000049BDDF830C0C3F12D0103FB2E
:104C30000CF3DDF82CC001FB0C332D2193FBF1F3B9
:104C40005343169AB2EBA32F13DDA64202DB334681
:104C500026461C4607980F99089A009001910292E7
:104C60003146224614AB2846FFF770FC23463446F3
:104C70001E46059B01365B08059396E6254E2C7073
:104C800030684FF0FF311830102202F0FFF8234651
:104C9000E968E0B231F914106200002920DD2978BA
:104CA000834201F101012970316821440B7615D04E
:104CB000696851F8240041F82300A96851F82400DC
:104CC00041F82300E968885A21F81300296951F84E
:104CD000240041F82300E968002088520133DBB248
:104CE0000134102CD4D10C4B0C491B6806201A68D7
:104CF0000A705A684A70DA680123CB7030230B714E
:104D0000079B8A7001321A44FEF7B4FB1FB0BDE85E
:104D1000F08F00BFEC040020E40400205C050020BC
:104D2000144B0028B8BF40421A680029B8BF494256
:104D3000D2F8F03010B54343D2F8F4001B144843C6
:104D40000014834202DB1A46034610469A010A49C0
:104D500092FBF0F28A5C5AB10849C2F15A0431F868
:104D6000122031F81440534360431B1403EB2040DE
:104D700010BD00BFEC040020C406000006070000C0
:104D80002DE9F04F9B46824B92461E680278B36A2B
:104D90009BB09A42B8BF13460B70102204460D46D2
:104DA00006A84FF0FF3102F071F80AA8FF21402257
:104DB00002F06CF8774BB66A1B6803960493764B47
:104DC0000027D3F800C0039BFAB29A4254DADAF80B
:104DD0000C10530031F9121000294BD00498002612
:104DE00000EB8202D16FDCF80C204FF0FF3902EBB0
:104DF0004108227805920598F2B2824220D2E268F8
:104E000032F91620D2B16268DBF8041052F826E0BD
:104E1000C85EA268DBF8081052F82620C95EC0EB15
:104E20000E00511A0293CDF804C0FFF779FF029BE0
:104E30004045DDF804C0BCBFB14680460136DAE724
:104E4000B9F1FF3F16D01AAB4B4413F9502C4FEA7F
:104E50008909013208D01AA9494451F8402C424529
:104E600008D941F8408C03E01AAA4A4442F8408C21
:104E700003F8507C0137A6E700212278CBB29A4292
:104E80002AD91AAA1A4412F8502C50B2013021D053
:104E90006668D2B256F823706E68980046F82270A1
:104EA000A66856F82370AE6846F82270E66836F8B1
:104EB0001360EB6823F8126026696B69365843F873
:104EC0002260344B1B6803EB82021AAB184450F883
:104ED000403CD3670131D0E700212378CAB2934226
:104EE0003ED90DF1680C94441CF9503C013335D186
:104EF000E76837F912308BB3254B00201B68D3F8D5
:104F00002890C3B24B4529DADAF80C604FEA430B1C
:104F100036F9136006BBD5F80C8008EB0B0638F9A0
:104F20001380B8F1000F17D160680CF8503C50F8AE
:104F300022C0686840F823C0A06850F822C0A86862
:104F400040F823C037F8120030802669686956F8A7
:104F5000222040F8232001E00130D2E70131BCE7F4
:104F60000B4B00221C680B4B1B68197EA06A013298
:104F70008142BDBF1AA8091811F8501CFF21102A40
:104F8000197603F10103F0D11BB0BDE8F08F00BF2B
:104F9000E4040020EC040020BC1800202DE9F04FB0
:104FA00093B0054605910692FFF768F96F4B07909D
:104FB0001B689C6A14F1FF34C0F0D480EB68670072
:104FC00033F91430002BF5DD6A69A30002EB030E00
:104FD0009EF903104FF00008089164499EF90220E1
:104FE0000968C3460A91624909680B9108998A4287
:104FF0006ADC9EF901604FEA02299EF900000996D9
:10500000CDF83090DDF824C0511C60455ADC0A9E72
:1050100000F10109D6F80CC0DDF814A009FB0C1151
:105020001AF80160CDF81090102E039125DD0426AA
:1050300016F1FF362FD3DFF8409109F1080A16F96F
:10504000099016F90A10814409FB0CC9CDF80890A3
:10505000DDF814909144CA468A4402998A449AF829
:105060000190B9F1000FE3D00B994FFA89F9894407
:1050700099F91790A145DBD107E06EB1DDF81CA0CE
:10508000564496F91760A64205D1DDF80C900699B2
:1050900031F8196000E000266968DDF830A0C958D1
:1050A000CAEB01010029B8BF494201FB06BBA96850
:1050B000C958A1EB00210029B8BF494201FB06886D
:1050C00004989FE70A4691E76A68DFF8B0A0D65CCB
:1050D000AA68802ED35CC8BFC6F58076802BC8BF77
:1050E000C3F580731E44DAF800303046196903F1C5
:1050F00014022833FEF7C0FAEA68DAF80030814675
:10510000D05FC9F14002B3F958100092DA6B002366
:10511000FEF794FAD5F80CA0814409FB0BF009FBCB
:1051200008F93AF90730D5F810B0990190FBF1F081
:1051300099FBF1F1FFF7F4FD2BF807003AF907307E
:105140000C491193042380B24B7043F080031090FC
:10515000CB701220B0230EAA0E940F960B71FEF79F
:1051600089F927E713B0BDE8F08F00BFE404002001
:10517000EC040020B4020020A0720000BC18002043
:1051800070B5114E054630680A220C46A430002145
:1051900001F07CFE0D4B30681B6893F82820013A23
:1051A000D2B2FF2A4FF000030BD0E96821F8123089
:1051B000E16821F81230811881F8663081F870308A
:1051C000EDE72B70237070BDEC040020E404002098
:1051D00070B50C4D00242868052680F8AE402146A5
:1051E0003246D23001F052FE286821463246D7308E
:1051F00001F04CFE28682146B0300A22BDE870401C
:1052000001F044BEEC0400202DE9F34103680DF1E8
:105210000601ADF804304368044601A8ADF8063035
:10522000FFF77AF86E4B1B6893F82C1093E8240074
:1052300019B1561E3602013D02E0013D2E02551EF7
:10524000684B2D0293F86830674FDFF8A481002B7C
:105250003AD0BDF90430B3F5007F09DA634AA3F50B
:1052600000731268927953439B1103F500730DE0AC
:10527000F31AB3F5007F0BDA5C4AA3F500731268EA
:10528000A6F50071D2795A43A1EBA213ADF8043010
:10529000BDF90630FF2B09DC544AA3F58073126870
:1052A000127A53439B1103F580731DE0EB1AFF2B19
:1052B00057DC4E4AA3F580731268A5F58071527AC7
:1052C0005A43A1EBA2130FE03B681A7E7AB1BDF9F5
:1052D000043020462360BDF906306360FFF754F8C0
:1052E0002368ADF804306368ADF8063039E0D8F8CB
:1052F00000201279AABBBDF90420FF2A08DC93F82C
:10530000C410A2F580724A43921102F580720BE03C
:10531000B21AFF2A0ADC93F8C510A2F58072514335
:10532000A6F58070A0EBA112ADF80420BDF906200F
:10533000FF2A08DC93F8C630A2F580725A43921116
:1053400002F580720BE0AA1AFF2A0ADC93F8C73034
:10535000A2F580725343A5F58071A1EBA312ADF8BD
:105360000620D8F800103A688868BDF90470136800
:1053700007445F4306EB400097FBF0F6C968BDF9B0
:10538000067050680F44474305EB4101B6B297FBE6
:10539000F1F592F8C810ADF8046036B2ADB28E42A5
:1053A000ADF8065004DD5F1ABE4203DB013B591A1B
:1053B000ADF8041092F8C9302DB29D4204DDC21A36
:1053C000954203DB0138C31AADF80630BDF904304D
:1053D0002360BDF90630636002B0BDE8F08100BF14
:1053E000E4040020D0180020C018002080180020FD
:1053F000EC040020104AC378126810B551685CB202
:1054000001398C42BCBF0133C370837859B2002983
:10541000C4BF03F1FF33837012684378013A59B275
:105420009142BCBF0133437003785AB2002AC4BF13
:1054300003F1FF33037010BDE40400202DE9F04FA9
:1054400087B00546FDF78AFFFDF78EFF4FF0010894
:105450000024894B894E1B689A6A944280F2BE8070
:10546000336867003B44B3F92A20B3F93E3002A801
:1054700003930292FFF7C8FEEB6804F1280933F9A1
:105480001430002B7FDD6B68684653F824304FEAF8
:10549000840A0093AB68DFF8E8B153F82430019335
:1054A000FFF7B2FE9DE80340039BCB1A83EAE37C3F
:1054B000ACEBE37C33681A1992F8A42052B92A693C
:1054C000D25B322ADBF8002092F8842006D90D3214
:1054D000D2B203E0DBF8002092F8852003EB490B01
:1054E000BBF902B0BBF1000F0ADD944508DACEEB40
:1054F000000EBEF1000FB8BFCEF1000E964561DB85
:105500009DF8102002F01F0242F0C0028DF810201A
:1055100093F8DCE08DF812006EF3041268F30302D6
:105520008DF810209DF811204FEA202E6EF3030213
:105530004FEA212E6EF307128DF81120EA688DF8DC
:105540001310D25F2146FF2AA8BFFF228DF8142036
:10555000D3F8EC3004A8984704A8FDF70FFF326891
:10556000D319B3F9521022440029CCBF01210021E4
:1055700082F8A4106A6852F80A205A85AA6852F87C
:105580000A20DA871EE0336803EB4903B3F90230DF
:10559000002B17DD002305934FF0400368F303034E
:1055A000029A8DF81030039BC2F30321181260F3A6
:1055B000071104A88DF811108DF812208DF8133002
:1055C000FDF7DCFEEB6808F10108DA5B33680134B3
:1055D00003EB49035A8008F00F083AE75F697C1E25
:1055E000631C07F00F072ED033684FEA440843448A
:1055F000B3F9C820B3F9B030002A11DC002B19DD53
:105600000022049205926FF07F0267F30302FF2BE2
:10561000A8BFFF238DF810208DF8143004A807E0F0
:10562000002B07DC002306A80493059300F8087DEF
:10563000FDF7A4FE3368013C4344B3F8B020013FBA
:10564000A3F8C820CCE73368297893F8DC2083F8E6
:10565000281083F8DD2093F8AE2083F8C62019B90E
:10566000003218BF012200E0012283F8E020FDF79C
:1056700099FE07B0BDE8F08FE4040020EC040020A0
:10568000BC18002070B506460C4616487146754693
:10569000FDF76CF986EAE673A3EBE67384EAE4703F
:1056A000A0EBE470834202DB1A46034610469A01DF
:1056B0000D4992FBF0F28A5C62B10C49C2F15A04C6
:1056C00031F81440604331F8124063431B1403EB7C
:1056D000204400E0044603482946FDF765F92046CA
:1056E00070BD00BF85560000C4060000060700001C
:1056F0002DE9F04314461F46A5B005460E4600228C
:105700000123791E8B4202F102021CDAA91831F939
:1057100002ECA85EB1F9021070440844032190FB2A
:10572000F1F02DF80200B01830F902CC36F902E0A1
:105730000133F444B0F902E00CEB0E0090FBF1F100
:1057400012A81152DDE7A7F102084FEA48084246C5
:105750000DF10201A81C01F023FB4246B01C0DF123
:105760004A0101F01DFB33884FF00008E3803388C5
:105770004FF00109A3802B8863802B882380B945D3
:105780002DDAB5F90020B6F90030B5F90200B6F906
:105790000210801AC91AFFF775FF6B88B4F902105E
:1057A0001AB29142B8BF63806B88B4F900101AB284
:1057B0009142C8BF23807388B4F906101AB291428F
:1057C000B8BFE3807388B4F904101AB291428044E0
:1057D000C8BFA38009F1010902360235CFE7404670
:1057E00025B0BDE8F0832DE9F04F4FF0150A4FF0DA
:1057F000010897B006460D469B4692FBFAFA4446CE
:105800004FF000095C4535DA6700023F36F91400B5
:10581000F25F35F91410EB5F801AC91AFFF732FFF7
:1058200009EB0001514522DBE95F35F91430C9EB82
:105830000A095B1A09FB03F393FBF0F3F25F0B44D5
:1058400036F914109BB2891A09FB01F999FBF0F0A3
:10585000104416A901EB480280B2F05322F8580C0C
:1058600022F82C3C08F10108EB53002100E0013440
:105870008946C7E70DF1020302360DF12E0253F8F7
:10588000041B934246F8041BF9D102350DF15A026C
:1058900053F8041B934245F8041BF9D117B0BDE837
:1058A000F08F2DE9F843B1F90430B1F906600C46E8
:1058B000F61A64235E43B1F90210B4F90030CB1A32
:1058C00096FBF3F6A6F11A03B3F5BB7F2DD20025A4
:1058D000814690462F46B9F900306421594391FB27
:1058E000F6F189B2012F29F8021B0BDDB8F900008F
:1058F00038F9022C39F9043C09B2801AC91AFFF7A9
:10590000C1FE05440137162F08F10208E3D1B4F9AE
:10591000042064235A4392FBF6F2A280B4F90620D5
:10592000534393FBF6F6E68000E000252846BDE8E9
:10593000F883F8B51D460446B3F90200B3F9003008
:10594000B5F904E01844B5F90630B2F9267073448D
:10595000B7EB630F069E4FEA6000B1F9263004DD15
:105960008342CCBF0320022003E08342CCBF01204E
:105970000020A070B1F90000B2F90010C01AC91BD4
:10598000FFF780FE0A2396FBF0F060705E43B5F9E6
:105990000620B5F90430D31A96FBF3F62670F8BD4D
:1059A0002DE9F043814691B00F469046002501262F
:1059B000152E09D1B7F90030B7F92820B8F9281009
:1059C000D21AB8F900300AE07B19B3F902207B5FE4
:1059D000D21A08EB0503B3F9021038F90530CB1AD7
:1059E00040F2A711514340F6A710424389128B425F
:1059F0004FEAA222CCBF012400249342C2F100024C
:105A0000C8BF44F0020449429342B8BF44F00404C2
:105A100040228B4268464FF00001B8BF44F00804B2
:105A200001F034FA012202238DE80C0003230393D2
:105A3000042307930823089307230C9306230E934C
:105A400010AA05230F9302EB840409EB060354F814
:105A5000402C0136162E03F8012C05F10205A7D1C2
:105A600011B0BDE8F08310B504468CB004AA237AC7
:105A700003C8FFF73DFE194B02461B689B889842FE
:105A800029DD94E80300237AFFF7ADFE2268606801
:105A900004A9FFF706FF009094E8060004AB03A8F2
:105AA000FFF747FF94E8060006A80D4CFFF778FFC4
:105AB0000CA8002300F8253D236806A9D3F8E4309C
:105AC00098479DF80B303BB9236806A8D3F8E83017
:105AD00003A9984700E000200CB010BDC4180020B6
