:1000000000800020B9050000000000000000000092
:1000100000000000000000000000000000000000E0
:1000200000000000000000000000000000000000D0
:10003000000000000000000000000000C9000000F7
:10004000E500000000000000ED0100000D020000CE
:100050003D0200005D0200007D0200009D020000E4
:10006000BD020000DD020000FD0200001D030000D3
:100070003D0300005D0300007D0300008F030000CE
:10008000002303600B601312012B30B514D106233B
:1000900013F1FF3310D3094DD4B25D5D641BF7D467
:1000A000074A126852F8232032B122440260054AFE
:1000B000D35C1C1B0C6030BD30BD00BFB00600001F
:1000C000AC060000B6060000684620F007018D4629
:1000D00001B5034B01229A72BDE801408546704785
:1000E00000000020684620F007018D4679B54FF0EA
:1000F000A0456B69C3F30363022B1FD005D8012B06
:100100005DD1374B00221A6159E0042B25D0082B12
:1001100055D133490023CB600B6195F8202095F829
:10012000213043EA02234B612E4B1B68002B46D043
:100130004A6901F118001C31984740E0284B996941
:1001400000293CD01869DA69904238DA1A69501CE3
:10015000186195F820308B5431E0214CA369002BB5
:100160002CD0E168E26991420DDAE2689B5C6B6237
:100170001D4B1B6823B16269E068104480B2984748
:10018000E368013318E06669164BE2681B6804F106
:10019000180004F11C0132449847A36973B16169E6
:1001A000E2680A4462611B786B620F4B1B6813B1F3
:1001B000606980B298470123E36000E06B6201222E
:1001C0004FF0A0431A734FF0A0435A6912F0706FBA
:1001D000F9D101225A73BDE879408546704700BFC6
:1001E00000000020B4000020B0000020064B68464C
:1001F00020F007011B688D4601B503B19847BDE8A3
:1002000001408546704700BFAC000020684620F0E2
:1002100007018D4601B5084B012159714FF080430C
:100220001A6861F30F221A601A686FF307021A60E6
:10023000BDE801408546704700000020064B684637
:1002400020F007011B688D4601B503B19847BDE852
:1002500001408546704700BFA8000020064B684655
:1002600020F007011B688D4601B503B19847BDE832
:1002700001408546704700BFA4000020064B684639
:1002800020F007011B688D4601B503B19847BDE812
:1002900001408546704700BFA0000020064B68461D
:1002A00020F007011B688D4601B503B19847BDE8F2
:1002B00001408546704700BF9C000020064B684601
:1002C00020F007011B688D4601B503B19847BDE8D2
:1002D00001408546704700BF98000020064B6846E5
:1002E00020F007011B688D4601B503B19847BDE8B2
:1002F00001408546704700BF94000020064B6846C9
:1003000020F007011B688D4601B503B19847BDE891
:1003100001408546704700BF90000020064B6846AC
:1003200020F007011B688D4601B503B19847BDE871
:1003300001408546704700BF8C000020064B684690
:1003400020F007011B688D4601B503B19847BDE851
:1003500001408546704700BF88000020064B684674
:1003600020F007011B688D4601B503B19847BDE831
:1003700001408546704700BF84000020684620F099
:1003800007018D4601B5BDE80140854670476846C6
:1003900020F007018D4601B5BDE801408546704754
:1003A000F0B587B000BF754C754D00266119043952
:1003B0002046ADF8046000F027F9724B724903F152
:1003C00038021A6203F14F025A6203F157029A622D
:1003D00003F15F02DA6203F175025A638A6AADF8CB
:1003E0000400C3F85F20CA6ACF6BC3F86320BDF86E
:1003F000042003F16B00A3F86920644ABFB20492A1
:100400001863A3F867700596082212F1FF3203D330
:1004100004AE965D8654F8E7A40A83F857405C4C16
:100420005C4EA40A83F85840EE2483F8594083F8C0
:100430005A40594C0396A40A83F85B40574C83F802
:100440007660A40A83F85C40554C4526A40A83F8DC
:100450005D40544C83F85120248883F8522083F85F
:10046000532083F8542083F8552083F85620BDF894
:1004700004204FF0300C83F87B604D2683F879C060
:1004800083F87A604FF0480C222692B283F878C045
:1004900083F87C604FF0330C0326AD0ABA4239482A
:1004A00083F877C083F8756083F85E50A3F84F40F7
:1004B00061D1B0F84F400A8A94425CD13A4A12881E
:1004C00092B2ADF80620394A1288ADF80820384AB1
:1004D0001288ADF80A20BDF806404FF6FF72A4B2AC
:1004E00094420AD0284CBDF80620648A92B2944205
:1004F00004BFBDF80620A0F85120BDF808004FF653
:10050000FF7280B2904209D0BDF80820888A92B26A
:10051000904204BFBDF80820A3F85320BDF80A009C
:100520004FF6FF7280B2904218D0BDF80A20C88AF8
:1005300092B2904212D104220020013AD2B2FF2A94
:1005400007D01C4C8D18A45C2D79A54208BF012052
:10055000F3E718B1BDF80A20A3F85520B3F85320EB
:100560004FF6FF739A4206D0064AB2F85500C01AF9
:1005700018BF012000E0002007B0F0BD000000001F
:100580000000020000000020C0FF01004D495000A3
:1005900000080000543348300008000000C8010083
:1005A00000C80100FE070000FE7F0200FEC7010038
:1005B000BEFF010000C80100684620F007018D461B
:1005C00001B50C4B1A696FF310421A610A4B0B4AC2
:1005D000934203D2002243F8042BF8E700F034F8EA
:1005E000FFF7DEFE08B100F00BF9054A054B1A6073
:1005F00062B6FEE70000105000000020B8000020A6
:1006000081000000B400002010B50E4BC0F31104AF
:10061000DA6E091A920C92042243DA661A6F61F3B9
:1006200011021A679A6E42F001029A6600BFB3F88F
:10063000762092B2002AFAD0024BB3F8740080B24E
:1006400010BD00BF000010504FF0A04301225A74AB
:100650001968342060F31E611960596802206FF335
:100660001A615960596860F312415960596862F320
:100670000A215960596862F303015960996841F48D
:10068000706199600649DA724B6913434B61054BFF
:100690001978054B0901C9B283F800131A60704735
:1006A00000001050BC06000000E100E02000002027
:1006B0000020304050701708080C0A0800010102A1
:1006C00004050607030303030303000000010203FC
:1006D000040405060708090A0B0B0C0D0E0F101178
:1006E00011121314151516171818191A1B1B1C1D97
:1006F0001D1E1F1F202121222323242425252627D8
:1007000027282829292A2A2B2B2C2C2D2D000000C4
:100710007804EF08660DDB115016C21A331FA123AF
:100720000C28742CD93039359639EE3D424290462A
:10073000D94A1B4F58538E57BE5BE65F07641F684C
:10074000306C397038742F781C7CFF7FD983A88770
:100750006D8B278FD5927996109A9B9D1BA18DA4A6
:10076000F3A74BAB97AED4B104B526B839BB3EBEA8
:1007700034C11BC4F2C6BAC973CC1BCFB3D13BD4AE
:10078000B2D619D96EDBB3DDE6DF08E218E416E66F
:1007900003E8DDE9A5EB5BEDFEEE8FF00DF277F3FC
:1007A000CFF414F646F764F86FF967FA4BFB1BFCBD
:1007B000D8FC81FD17FE98FE06FF5FFFA5FFD7FF5F
:1007C000F5FFFFFFFFFFFFFFFFFFFFFFFFFFFFFF43
:1007D000FFFFFFFFFFFFFFFFFFFFFFFFFFFFFFFF29
:1007E000FFFFFFFFFFFFFFFFFFFFFFFFFFFFFFFF19
:1007F000FFFFFFFFFFFFFFFFFFFFFFFFFFFF0520E2
:100800002DE9F04FDBB002AF09F01EFD02F0DCFD78
:10081000F8600AF093FD0AF0E7FD01F090FB07F0A5
:1008200015FCAB4AAB4B03241A60AB4AAB4B1A60C6
:10083000013C42D0AA4E0025336814209D6002F08E
:100840000BFAA84B5B6813F4005328D1A64A127820
:10085000F2B10135502D18DDA7F81031012387F8CA
:10086000103102F0E3FD80B9FB2307F58870022107
:1008700087F8113102F0C0FE4FF47A7002F064F88C
:1008800033689A6801329A60EBE7142002F0E4F9C9
:1008900002F05CFF0028D4D0012002F0B3FD02F08A
:1008A000FFF9904B5B689B04FBD4C1E70BD8B8B150
:1008B000012800F0C881C7F80CB002F085FD0228BD
:1008C0008346F3D1CCE1082800F006820C2800F022
:1008D00013820528EFD102F00FFE02F0FAF8F6E1DC
:1008E00002F08AFD054638B30128E4D17F4EDFF8D7
:1008F0000C82326888F8680088F86CB0916A784C8D
:10090000B960516923687960022183F8E0B191628E
:10091000C2F814B0764AB2461268917819715078CC
:100920005871D27858465143196172493F235A464B
:100930000B7102F0B5FEBDE06F4A704B684912685A
:1009400083F868B010780B680126187152788846D1
:100950005A716B4A1468647C60431861012E02D09E
:10096000022E10D08FE000200AF034FED8F80030BC
:1009700063491A791A600B681C7C24B1002000F0CE
:1009800081FA013CF9E7594B07F180051B682846BD
:1009900093E8060001FB02FA5B69C7F808D003EB95
:1009A0004A039B000A3323F00703ADEB030D142227
:1009B000002106F063FC07F12C0407F588736360DF
:1009C00007F1C803A36007F16803E560236107F13D
:1009D000200507F15403DFF82C916B6007F1400309
:1009E000AB6002AED9F8003006EB8A0206EBCA0A09
:1009F0005A601E60C3F80CA0DC611D62D8F800309C
:100A000093F90630012B08D1002005F091FD344BFD
:100A1000FF221B689A711A791A60D9F80030524681
:100A200093E8030007F032FBFB680BB102F064FDB2
:100A3000D8F8003000229A60324952460B6800957F
:100A400093E80300234600F0CFFCD8F800306FF0A5
:100A5000004299680646914202D09A6801329A6033
:100A600036B902F0C9FC18B902F0AEFC0028E3D098
:100A7000D9F80020002313605360D360D361136260
:100A8000BA68FB60954602F0B7FC00287FF413AF0C
:100A900002F09AFC00283FF461AF0CE7022D33D03E
:100AA00002F0AAFC012840F0C88002F08DFC00286A
:100AB00040F0C380012DF1D10BF01FF90C4B1B68E6
:100AC0005D790DB3042000F0B1FB013DF9E700BFF3
:100AD000B1370000B400002039380000B000002019
:100AE000B80000200000025000000020E8040020B0
:100AF000481B0020670500204C1B0020981B00208D
:100B0000441B0020BC000020DAF80030E94693E8DE
:100B1000060051439869DA695B6900FB02121344CD
:100B20009B000A3323F00703ADEB030D07F11C0311
:100B30003B6607F118037B6607F114037B6407F13A
:100B40001003BB6407F18003BB66DFF8C88107F1BF
:100B5000C803FB6607F58873BB670025D8F800302B
:100B600007F12C0EC7F858E002A8FD6107F1200E2E
:100B700007F15405C7F85CE000EB8101DD6107F186
:100B8000400E00EB820207F1680599605D62186013
:100B9000DA60C3F820E02368DD6A00959B6A09F0FB
:100BA0004BFEF96809B102F0A7FC57490020A223C7
:100BB00002460B7102F074FD03F07EFC002380F806
:100BC000F430524B1B681B7913B12368FF2201E0FC
:100BD000236801229A71236800259D6000F0F8FDCA
:100BE0004B4A82F86E504B490B685A6A00929968DA
:100BF000DA6918681B6A00F085FE23686FF000420E
:100C000099680546914202D09A6801329A603DB9CE
:100C100002F0F2FB012803D102F0D6FB0028E2D05B
:100C2000D8F80020002313609360D3609361D361F0
:100C300013625362CD46FB6032E73368BA68796865
:100C40009A62596137E602F057FC02F0BDFB0128B9
:100C5000FBD00AF04BFB07F0F9F902F00DFB2AE696
:100C600007F048FB02F07AFB07F0CAF902F044FCF7
:100C700002F05CFC04281ED007D802280ED010D841
:100C800001281DD107F0D2FB1AE0082816D0092848
:100C900007D0072814D108F01BFE11E007F044FD2F
:100CA0000EE01B4B93F8683013B107F0C3FD07E06B
:100CB00007F000FF04E008F053FD01E007F0A6FB99
:100CC00002F082FB0228D3D007F068FBF3E502F0C4
:100CD0007BFB0528FBD0EEE502F00EFC02F010FED7
:100CE000002305780446037007F02AFA02F06CFB33
:100CF0000828F9D02570DEE502F0FEFB02F064FB67
:100D00000C28FBD0D7E500BF67050020481B00205A
:100D1000981B0020BC000020014B1860704700BFEA
:100D2000441B0020014B1868704700BF441B002083
:100D3000014B1860704700BF4C1B0020014B186826
:100D4000704700BF4C1B0020014B1860704700BF6C
:100D5000481B0020014B1868704700BF481B00204B
:100D6000014B1868704700BFB8000020014B58685D
:100D7000704700BFB80000207146F8B53748754687
:100D800001F0FEFE03F098FB354C064623685A6BD3
:100D9000002AC9BFD96B00218918C90FC9B232B95D
:100DA000DA6B12F1320FACBF0022012200E0002208
:100DB0000A4383F814211F6C02F0A2FD03799F42BD
:100DC0000FDD23681A6C1D2A0BDC5A6B653AC62AA4
:100DD00007D89A6C103A0D2A03D893F8E121013212
:100DE00001E02368002283F8E12123681F6C02F0F0
:100DF00087FD03799F4213DD194B1B681A6C1D2A6E
:100E00000EDC5A6B0D3A1A2A0AD89A6C023A032A57
:100E100006D896F828201AB993F8E221013201E0A9
:100E20002368002283F8E221236893F8E121312A24
:100E300003D893F8E221312A0AD9002283F8E1216C
:100E400083F8E221012283F814210322C3F81C2134
:100E500029460248BDE8F84001F0B0BE790D000017
:100E6000B800002038B5064D74462846714601F09A
:100E700087FE28462146BDE8384001F09FBE00BFEE
:100E8000650E0000044B054A1B6812680146906A13
:100E90000CCB05F0FFBE00BFBC000020B800002056
:100EA00030B5224C85B0236893F8CC2112B993F861
:100EB000B02112B1002283F81421D3F814011C4987
:100EC00010F0FF151DD0D3F81C2100200192DA6B21
:100ED00002925B6B01AA039303234B708423CB70B4
:100EE00010230B7102F0DCFB23680020D3F81C21D7
:100EF000022AD5BF0132C3F81C01C3F81C2101200E
:100F000011E0DA6B092001925B6B01AA02930223C4
:100F10004B708423CB7064230B7102F0C1FB2368F8
:100F20002846C3F81C5105B030BD00BFB8000020F2
:100F3000B40200202DE9F04F744B89B093F868306B
:100F400002AFF860B9601BB102F0E6FC447D02E03C
:100F500002F0D6FC047ADFF8C4A16D4DDAF8003057
:100F6000DFF8BCB193E8060001FB02F85B69286872
:100F700043445B00083323F00703ADEB030D0DF191
:100F80000809DBF8003009EB4808C3F81090C3F8F3
:100F900014800021D422343006F070F92B684846C2
:100FA00003F134019A6AFB6802F096FD2B68DBF8C6
:100FB0000020009403F5847178601269D869343395
:100FC00009F00EFF2B684046DA6A03F13401BB6872
:100FD00002F0FEFC2C68386004F5847104F13400E2
:100FE00002F0B2FCDAF80030C4F80C011A68494C7F
:100FF000022622705A689B686270A37046F08003D4
:10100000E37053232371DBF8003021461A69012075
:1010100002F046FBDAF800303F495B6901204B7073
:1010200046F08003CB7042466D230B7102F038FB13
:10103000DAF8003001201A6807F110013A745A6892
:101040007A749A68BA7493F82C205B69FA743B75C9
:10105000002246F080037B75CDF80090134602F025
:10106000E5FADAF8003021461A68052022705A683D
:10107000E6706270DA68832323712B68A2705B6A62
:10108000013203EB420202F00BFBFFF775FEFFF7A4
:1010900007FF5C4680BB2B68D86901F0E5FC2B6834
:1010A000D3F80C0101F0DCFC01F0EAFE174B93F8D9
:1010B000683033B197E8060041EA020313F0FF0FEE
:1010C0000DD12B68494603F13402F8681B6802F021
:1010D0001DFF2B68B86841461A6802F0E9FF052039
:1010E00001F07BFC404603F013FB286800F5887094
:1010F00004F09EFA002000E03046236800221C37EE
:101100001A615A61BD46BDE8F08F00BF981B0020F0
:10111000B800002060050020B4020020E804002090
:10112000BC0000202DE9F04F91B002AF8946044683
:10113000904602F003FC03F0BFF9C7F808D092B064
:1011400002AB92B00DF1080B8AB002AA90B07A619E
:1011500002AA8AB040253A6102AA184688B0FA600D
:1011600000212A467B604FF0200A06F087F82A46C5
:101170005846002106F082F878695246002106F0B0
:101180007DF838692A46002106F078F802AEF86842
:101190005246002106F072F852463046002106F011
:1011A0006DF87B6892B03B627B697E63BB623B6992
:1011B00002AEFB622A46FB681B4D304600213B63B2
:1011C000C7F824B006F05AF82B6807F11C0003F5A5
:1011D00084720092196A32465B6A09F025FC2B681A
:1011E000CDF8009007F11C00196A32465B6A03F0E3
:1011F000CFFC07F11C0021464A46434603F0DEFEC1
:101200002B682046196A5A6A03F0E6FF204603F06D
:10121000C9F9BA68204695464946424603F052F954
:101220003C37BD46BDE8F08FB800002001280146DC
:1012300001DCFFF727BE044B044A1B681268906A62
:101240001A689B6805F07ABBBC000020B80000203B
:1012500070B5AEB005AD14240646224628460021DE
:1012600006F00CF82246684610AC002106F006F89D
:1012700028222046002106F001F824AB0B931AAB7C
:101280000AA831460C9300AB0E930D950F9404F011
:1012900095F804F0BBF80AA804F0EEF92EB070BD82
:1012A000F8B5074603F008F9044605F043FF4A4D38
:1012B00094F8F4102B68064693F9062009B9511CDE
:1012C00008D196F86000002108B119759961D960BC
:1012D000002421E01969D86867B1884202DAD86829
:1012E0000130D860012A01D1012415E0DB688B426E
:1012F00047DB0BE0884202DAD8680130D860DB684F
:101300008B423EDB012AEFD0022A61D1334B00220F
:1013100083F86E20012401E0944232D0304900204D
:1013200004F10E0302460B7102F0BAF91FB1204618
:1013300005F0FEF81EE02B6893F90620012A03D180
:1013400014B9264981F86F20002183F8E011254B5C
:101350001B685A6AD1725A6A11725A6A91725A6A31
:1013600051725A6A11735A6A11755B6A04221869BC
:1013700005F084FF2B689C711CB983F81541C3F8F4
:1013800018412B68987910F0FD0F01D11A791DE0F2
:1013900040B201281ED1BFB196F86020A2B19A696F
:1013A00001329A611A7D1AB100221A7505F0C0F84F
:1013B0002B6896F861209969914205DD0020012291
:1013C00098611A7505F0B4F82B685A791A60F8BD5F
:1013D0000224A3E7F8BD00BFB8000020981B00203E
:1013E00067050020BC0000202DE9F04F99B00446AD
:1013F00002AF6F488946714675461E46904601F019
:10140000BFFB6C490020A6220A71024602F048F98F
:101410000120FFF745FF0120FFF734FD01F0ECFF4D
:10142000012800F0B880644BDFF894A193F8653090
:101430000220002B18BF4C46DAF8003007F10801F3
:101440001A683A725A687A729A68BA7293F82C20BB
:101450005B69FA723B7304237B73584B00221B6851
:101460009B6A0093134602F0E1F820464146FFF7DD
:1014700061FD044618B13046FFF7EAFE79E0EA461E
:101480008CB002AB7B608CB007F12C03184607F1DF
:1014900018090DF1080B21468AB014223B600DF1AA
:1014A000080805F0EBFE48462146142205F0E6FE4A
:1014B00040462146282205F0E1FE3B68C7F85090DF
:1014C000DFF804917868FB64D9F80030C7F85480DD
:1014D00007F140083146C3F81880D7F880207864B7
:1014E0004046C7F848B0FFF71DFE4046FFF7BAFC7C
:1014F00002F02CF94E4610B9404604F0BDF897F8BA
:10150000402012219300073303F4FF63ADEB030D7A
:1015100002AB9646F86C405E002806DD786D0EF151
:10152000FF3E50F8110043F82E000239881CF1D11B
:1015300023484FF00008016808683874486887F845
:1015400014807874C86891F82C10B874F9748221EA
:1015500079751A4901300968496A01EB4000009029
:1015600007F11001032002F061F83368C3F8188016
:10157000D546124B1B6893F9B40100F029F8114BC2
:10158000002808BF20461B681B68B3F1CD3F04D07C
:1015900001F09FFAFEE7002400E0044604482946D3
:1015A00001F00CFB20465C37BD46BDE8F08F00BF64
:1015B000E913000067050020981B0020B8000020F8
:1015C000E80400206C1B0020BC00002001207047B4
:1015D0002DE9F843714607465748F14601F0D0FA25
:1015E00004F0FEFE054601F039FF544C0646236820
:1015F00093F8DC31834214D0514938B100203B23A9
:1016000002460B71032502F04BF805E03C2302462D
:101610000B7102F045F83546236883F8DC6101263A
:1016200000E0002601F026FF2268804692F8DC31B7
:10163000E3B992F8DD21824218D0414938B139220C
:101640000A7118461A4602F02BF802250BE03A23DD
:1016500002460B7102F024F8384B1B6893F8DE51F8
:10166000003518BF0125236883F8DD8101F0B8FE3D
:10167000804601F0E7FE032F04D0B8F1000F06D03A
:10168000022600E00126002001F0B0FE32E02368CF
:10169000B3F8DC81B8F1000F2CD1012F02D0022F5A
:1016A00004D00EE0384602F029F80AE0404602F085
:1016B00025F8224B1B6893F8DF3113B1404602F046
:1016C0002DF802F013F82368074693F8DE318342C1
:1016D00010D000281A494FF000000CBF122311232C
:1016E00002460B710CBF0025012501F0D9FF2368CC
:1016F00083F8DE7104F074FEA8420CD0284604F092
:1017000069FE09F071FE002002F008F8236800224B
:1017100083F8DF21012601F0D1FE044602F0CCFE61
:1017200043794946A34218BF4471034801F046FA81
:101730003046BDE8F88300BFD1150000B800002096
:1017400067050020714610B51048744601F018FA7C
:1017500002F0B2FE0E4B1B685A6B002AC9BFD96B50
:1017600000218918C90FC9B232B9DA6B12F1320FF0
:10177000ACBF0022012200E000220A4383F81421BA
:1017800021460248BDE8104001F018BA4517000094
:10179000B80000202DE9F0410C4E04460F463046BB
:1017A00071469046754601F0EBF9207D2369294684
:1017B00003EBC00243F83070C2F80480237D30464A
:1017C00001332375BDE8F04101F0F8B99517000029
:1017D00038B5104D71462846744601F0D1F90E4BCC
:1017E00000211A68536AD972536A1972536A99723E
:1017F000536A5972536A1973536A1975526A106998
:10180000042205F03BFD28462146BDE8384001F0A2
:10181000D5B900BFD1170000BC0000202DE9F04F62
:1018200083B00446274800AF7146F04601F0A8F99E
:10183000637B94F814A0A3F11802022A206939D816
:101840000AEB4A02911C0932E946D208A9EBC2040C
:10185000A5460222EB468DF800208DF801306E4639
:101860000024E3B2534500F1080506F103061DD23A
:10187000796003F0E7FD55F8043C737055F8083CB7
:10188000337004EB44035B4455F8042C987812122F
:1018900062F30710987055F8082CC0B2121262F368
:1018A00003009870013428467968DAE7584601F059
:1018B000A3FECD46034841460C37BD46BDE8F04F78
:1018C00001F07CB91D18000073B50D4D7146064638
:1018D0002846744601F054F9F1238DF804300123B1
:1018E0008DF80530737D01A803218DF8063001F0D5
:1018F00083FE2846214601F061F902B070BD00BFA9
:10190000C91800002DE9F04F9BB0814602AFB548E1
:101910008A467146FA60BB60C7F810E0D7F8884085
:1019200001F02EF90020FFF7BBFCAF4B93F86A20C3
:101930009846D2B283F86B2093F86B201AB100233B
:1019400088F86D300CE093F86D300133DBB2642B16
:1019500088F86D3004D9012388F86A3088F86B3034
:10196000A24D2B6893F906B0BBF1020F07D02B688C
:101970009E4E93F90630012B40F0A88021E09C4E4A
:101980000021336850465A6A920005F077FC5846A9
:10199000FFF74CFC30682E68836913F1FF33E6D300
:1019A000C26912F1FF32F8D3016A01FB032E81688C
:1019B00001FB032BB16A51F82B1009044AF82E10D1
:1019C000EFE798F86E30C7F814D00133DBB20F2B75
:1019D00088F86E30DFF818B20BD9834A002182F8FC
:1019E0006E10DBF80020052014781679FFF71EFC36
:1019F00007E0DBF800200320147E167FFFF716FCBB
:101A0000D14698F86C2002F0FF0822B1764B0022F4
:101A100083F86C2057E004FB06F2520002F1080143
:101A200021F00701ADEB010D0DF1080A41465046CA
:101A300005F024FC28684146D422343005F01EFC11
:101A4000DBF8003002201A6807F1480187F84820C7
:101A50005A6887F849209A6887F84A2093F82C201A
:101A600087F84B205B69042287F84C3097F84D309B
:101A700062F3060368F3C71387F84D302B684246BC
:101A80009B6A0093434601F0D1FD2B688DE850001E
:101A900003F134019A6A50464B4602F03BFB05467F
:101AA000FFF750FEFFF7FCF968B945B94F4B4846C0
:101AB0001B6800961A685146234602F083FC7B6936
:101AC00000259D46CEE07B699D460BE00520FFF793
:101AD000ADFB98F86C3003F0FF052BB1424B0022B0
:101AE00083F86C200225BDE0414B0422186807F101
:101AF000180103683B7643687B768368BB7690F871
:101B00002C30FB76436902203B777B7F62F3060330
:101B100065F3C7137B7733682A469B6A00932B468D
:101B200001F084FD29464846FFF704FA05460028DF
:101B300040F09880C7F814D08CB007F134030DF151
:101B400008088CB018460DF1080B29468AB007F139
:101B5000200A14227B600DF1080905F08FFB29464D
:101B60005046142205F08AFB29464846282205F0F3
:101B700085FB7B68C7F858A0DFF878A07B65DAF8AA
:101B8000003007F14800C7F850B0C7F85C90F9681A
:101B9000BA68C7F84C809861FFF7C4FA02F08CFC71
:101BA000D6F800B081469BF8E011204604F02BF9EE
:101BB00033688BF8E00193F8E0316573042B5546E8
:101BC0001AD006D8032B19D1204604F074F860739C
:101BD00014E0072B03D00B2B10D1192300E018239E
:101BE00063730BE005190000981B0020B80000206B
:101BF000E8040020BC000020FFF7EAFD01F0CCFD66
:101C0000037843B901F0CEFD037803F0FF0213B966
:101C10006273FFF7DDFD637B6BB9174A126892F8B8
:101C2000E0110D2915BF012389F8F43089F8F4304B
:101C300082F8E03108E001F099FD012802D1204648
:101C4000FFF7ECFDFFF7C4FD637D33B12046FFF7DE
:101C50003BFE637DA375FFF7BBFD2B6800259D61EF
:101C60007B699D463969054800F0A8FF284664371E
:101C7000BD46BDE8F08F00BFB80000200519000088
:101C8000014B1868704700BFA4020020014B586840
:101C9000704700BFA4020020014B9868704700BF46
:101CA000A4020020F0B58DB00D46044602F004FCFD
:101CB000704E074633689B69DB6833F8152013B212
:101CC000002B69DD92B2A2F1510130290AD86A4A8B
:101CD000022152F8040B009010686A4601901846E1
:101CE00001AB0DE0A2F1290121290DD8634A02219F
:101CF00052F804090290106802AA0390184603AB38
:101D000001F0D0FD207149E0A2F1DD0158290AD887
:101D10005B4A022152F8040B0490106804AA059053
:101D2000184605ABECE7A2F1920149290AD8554AB9
:101D3000022152F804090690106806AA0790184676
:101D400007ABDDE76FF4C8615118B1F5547F0AD8CD
:101D50004D4A022152F8040B0890106808AA099015
:101D6000184609ABCCE7A2F28B22B2F5F97F0AD86C
:101D7000464A022152F804090A9010680AAA0B90F8
:101D800018460BABBCE7C3F30F131AB2F22ADABF43
:101D90000C33DBB2FF2300E0002323712F4497F8BC
:101DA000DC300BB1FF23237101F0EEFB10B10128F1
:101DB00015D05CE033689B691B6933F8153063B15B
:101DC0009B08A3F1FD02FE3204D9012B04D9023392
:101DD000DBB202E0FF2300E00323637147E03268D7
:101DE00093691B6933F8153063B19B08A3F1FD01BA
:101DF000FE3104D9012B04D90233DBB202E0FF2308
:101E000000E00323637193695E6906EB850090F936
:101E1000023090F9031090F90120C91A16F9253003
:101E2000D21A9142637911DD33B18220584364257F
:101E300090FBF5F0C0B200E00120534393FBF1F1B9
:101E40000129B8BF0121A071E17110E033B18220F6
:101E50005843642590FBF5F0C0B200E001204B43ED
:101E600093FBF2F3012BB8BF0123A071E3710DB016
:101E7000F0BD00BFBC00002010730000187300000C
:101E80001C730000247300002873000030730000EE
:101E900010B50A4C2368986900F0B0F801F0ACFA6C
:101EA00023680128D969986903D1BDE8104000F082
:101EB0005DBCBDE8104007F081BD00BFBC00002044
:101EC00010B502F0F9FA90F82830044623B190F8E2
:101ED000C6300BB903F09AFA94F8C63043B194F8BF
:101EE00028302BB90F4B1B689869D96903F066FA43
:101EF00001F0D8FAA8B90C4B1B689B6A013B5A1C2D
:101F00000FD0013BE21892F8DD20002AF7D0054BF4
:101F10001B689869D96903F051FABDE8104003F0D5
:101F200075BA10BDBC000020E804002038B5044696
:101F300008200D4601F0AAFC80E8300038BD10B53D
:101F4000082001F0A3FC07F01BFD00F049F808F0A1
:101F500047FB09F073FA02F0AFFA114C114B124A29
:101F6000C0F800311268236810485A60DA601049DE
:101F7000FFF7DCFF23680F489A680F4901329A6027
:101F8000FFF7D4FF23689A6801329A6002F094FA4E
:101F90000A4BC0F8F8300A4BC0F8FC3010BD00BF47
:101FA000AC020020A51C00006C1B0020C5440000F2
:101FB000911E0000650E0000C11E0000E924000013
:101FC0001527000010B542B1594302FB0010D41888
:101FD00000EB640090FBF4F010BD084610BD00005B
:101FE00008B5782001F052FC034B002118607822DC
:101FF000BDE8084005F042B9681C00202DE9F04F0B
:102000009BB00F9002F03AFA02F056FAA94B1B6807
:102010009B6A013B5FFA83F8B8F1FF0F00F058822A
:102020000F99CB6833F91830002B00F04E824B68C3
:1020300053F8283014938B6853F8283015930C23E9
:1020400003FB08F311939C4B119A1B6812931344E2
:1020500016934B6903EB88030693FEF781FE089005
:1020600000F02EFC02F00AFA834602F025FA914BAA
:10207000DBF80C201B68012AB8BF01220E93DBF8A5
:1020800008300E9C012BB8BF012393FBF2F263686A
:10209000069D9B1A1793DBF81420DBF81030012AF9
:1020A000B8BF0122012BB8BF012393FBF2F22368D2
:1020B00095F903609B1A189395F9021000230D906F
:1020C0000B969C4603931F4605931A4604939A4623
:1020D0000B9DA94200F39280069D069E149C95F9E3
:1020E000005096F90160C4EB012002951396DDF8CB
:1020F0000890139CA1457FDC0E9D089CED68246A26
:102100000795029E0A94079C01364D1C06FB045558
:1021100010960A9E0995755D102D019530D90425FC
:1021200015F1FF3565D3DFF89891029C15F90990F8
:10213000079ECDF83090DFF88C9115F90990A144F5
:1021400009FB06690A9C0C9E0C443444A14499F88E
:102150000190B9F1000FE3D00D9C4FFA89F9A14429
:1021600099F91790C145DBD1089EDDF82490756A76
:10217000019C35F81950A4F1110695FBF6F60FE015
:10218000019DB5B3DDF834902E464E4496F91750B4
:1021900045452ED1089CDDF82490656A35F8196014
:1021A0003EB3159DDDF80890C5EB0924002C13DC27
:1021B0000028C4F1000406DD049D06FB00AA06FB0E
:1021C0000455049515E0DDF8149000FB162206FB7B
:1021D0000499CDF814900CE0002806FB04F405DC0B
:1021E000039D00FB16772544039502E006FB00CC17
:1021F0002344109E02967AE7013169E7C2EB0A0494
:10220000CCEB0705E542604611460CD41A46049E05
:10221000039B0392059ABC460492074652460596D4
:102220008A46002400E0012402EB0C015144C91944
:102230003BD00598DDF810901844039D48444019A0
:1022400035D0884240D0814208DCCAEB02026244A9
:10225000D21B22EAE27305460E460BE0059E049F60
:10226000DDF80C90F21B1344C9EB030323EAE3737C
:102270000D4606469B01B60196FBF5F60F4A93FB09
:10228000F5F53F2DA8BF3F253F2EA8BF3F26535D44
:10229000925D2D25C2F12D021A446B43814293FBBE
:1022A000F2F212DDC2F15A020FE00A460DE05A22A4
:1022B0000BE000BFE8040020681C0020CC060000F2
:1022C000BC760000B47600002D2204B15242129B6D
:1022D00011995A54D2F15A0314D0B42B7E4919D013
:1022E0005A2B07DC31F81240039408D14FF6FF75E2
:1022F000059515E0504231F8100040420390592BEB
:102300000ADC02E04FF6FF760396734A32F8132098
:10231000059205E0714B03935A3231F81210059182
:10232000069F002397F9039097F90210CDF84C907F
:102330009C4618469A461A46139CA14200F39C807C
:10234000149C069DC4EB0124049495F90160DDF80A
:10235000109095F90040059F039D07FB09F705FBC9
:1023600009F5129610971195DDF848904C4500F349
:1023700081800E9F04F10109FF68089E0797079D61
:102380004F1C09FB0577366ACDF828900996F65D53
:102390001997102E029630D90425013DEDB2FF2D7C
:1023A00066D0DFF83C91079F19F90590099ECDF89A
:1023B0002C90DFF830910E4419F90590A14409FBE7
:1023C00007790B9F3E44B14499F80190B9F1000F91
:1023D000E3D00D9E4FFA89F9B14499F91790C145A0
:1023E000DBD1089FDDF864907D6A029F35F81950B3
:1023F000A7F1110695FBF6F60EE0029D002D37D0F1
:102400000D9F2E463E4496F91750454530D1089E03
:10241000199F756A35F8176056B3159D039FA5EB94
:10242000042407FB04F5DDF840903244C9EB0505B0
:10243000002D049DDDF8449006FB05F706FB04F52E
:10244000CCBFBC44C7EB0C0C059FCCBF5B19C5EBE4
:10245000030307FB0495049F002D06FB04F406FB11
:1024600007F5C7BF0019AA44C5EB0A0AC4EB000070
:102470000A9C79E701315FE7DBF800509AFBF2F440
:102480009CFBF2F16C436943179F90FBF2F03E0214
:1024900094FBF6F491FBF6F1DBF8046093FBF2F3A6
:1024A00070437343DDF86090169A4FEA092590FB5C
:1024B000F5F093FBF5F340435B4304FB040401FB9D
:1024C0000131A41189115460916008F1FF33A1E535
:1024D0001BB0BDE8F08F00BF0E0700000100FFFF3A
:1024E000BC760000B476000030B500230C7D1A469F
:1024F000CD5C0133A5421CBF0132D2B2132BF7D100
:10250000022A10D8012303700B7D03F0F902012A7F
:1025100009D1032B09D002D8012B0CD003E0052BE5
:1025200005D0072B05D0002030BD152030BD16206A
:1025300030BD172030BD142030BD0022F0B5054657
:10254000064614461046777816F8013BFB1A5F1CC6
:1025500003DB032B05DD083B03E01F1DB8BF083379
:1025600001220233032B00F1010028BF01241228AD
:10257000E9D12878431E012B2B7D01D9082845D1AC
:10258000012C0BD1042B0CBF10200020012C17D1E3
:102590000C78142C14D940F0200011E0887802380F
:1025A000012894BF802000200AE04C78052C31D807
:1025B000032831D0887800F0FD00441E604260415D
:1025C000DC1E022C1DD9EC7C023C022C05D80A78BA
:1025D000202A11D940F008000EE0897801F0FD01B1
:1025E000012909D1591E012906D812B140F0020073
:1025F000F0BD40F00400F0BD072B0FD140F4807017
:10260000F0BD052B0AD140F40070F0BD012CCCD1F7
:102610000024B7E74020D3E70020D1E7F0BD3C4BD2
:102620002DE9F04F1C5C03EB800004FB04F2C6684C
:102630004FEA440C06EB0C03E9B003EB4202002026
:10264000A04212DA0D7836F8108005EBC00505F1CE
:102650000045013D32F81570C8F10008C7EB0805C8
:1026600004AF47F820500130EAE78A4668A909AF6D
:10267000039198460026A64231DA0025B94628463D
:10268000AB4628B938F8050059F8141C081A0FE0B1
:1026900038F805E059F8141C0192CEEB01010293C1
:1026A000CDF800C003F046FBDDF800C0029B019AA4
:1026B0000BF1010BA34509F104096544E1DB9AF82C
:1026C000011008F1020801EBC60101F100410139D6
:1026D00032F81110401A47F826000136CBE703996B
:1026E00014378F420AF1010AC3D1002004AD064617
:1026F000A6420ADA10B9D5F87C0103E0D5F87C11BE
:1027000003F018FB01360435F2E769B0BDE8F08F3D
:10271000347300002DE9F0410746FFF70EFF114D1D
:10272000804600244FF0FF360123A34003EA08034C
:102730002341012B01D0284606E020463946FFF709
:102740006EFF8542F7DA264601340A2C01D0054691
:10275000EAE7054A9042A6BF0136F0B20020BDE884
:10276000F08100BF806967FF6135FFFF2DE9F74FFA
:102770000446019101F08EFE824601F07FFE01F0D9
:1027800095FE064601F0DAF8804601F095FE474FC7
:1027900071883B6800269B6A05465B00B346023B96
:1027A0009A1C0AD02269D25A9642B8BF1646E268ED
:1027B000D25E9345B8BF9346F1E798F804303BB139
:1027C0008E4201DB012305E036B985F8F06003E0B5
:1027D00023780BB985F8F03095F8F03043B195F8CF
:1027E000F10028B93249B52302460B7100F058FFB9
:1027F0003B689F6A05EB870909F17C0917F1FF37F0
:1028000049D3E3684FEA470833F91730002B3FD02C
:1028100000F0BCFFEA1992F96610C378E26801BBC8
:1028200032F90800642101FB00FC4B439C452169FF
:102830000FDB9AF87CC031F808300CFB06FCB3EBD8
:10284000AC1F06DBDAF8803003FB0BF3B0EBA31F01
:102850001EDA002321F8083022F8083049F8043C39
:1028600013E032F9081042F2107041439AF86C00FC
:1028700043436420434399420ADA2369002123F841
:10288000081022F8081049F8041C2378013B237033
:10289000A9F10409B2E72378019A137095F8F03092
:1028A00085F8F13003B0BDE8F08F00BFE8040020E8
:1028B00067050020014B1860704700BF581B0020BF
:1028C000014B1868704700BF581B0020014B18606F
:1028D000704700BF501B0020014B1868704700BFB5
:1028E000501B0020014B1860704700BF541B002094
:1028F000014B1868704700BF541B0020014B18683B
:10290000704700BFB0020020064B20F07F40013826
:10291000002258609A6001221A6000BF1A68D20330
:10292000FCD5704710E000E0064B20F07F400138F6
:10293000002258609A6005221A6000BF1A68D2030C
:10294000FCD5704710E000E0024B1B689B685843C1
:10295000FFF7DABFB0020020044B4FF47A721B6815
:102960009B68584390FBF2F0FFF7CEBFB002002007
:10297000024B1B685B685843FFF7D6BFB0020020CC
:10298000044B4FF47A721B685B68584390FBF2F07B
:10299000FFF7CABFB002002008B5054B5A6822F005
:1029A00002025A60FFF7AAFF0123037308BD00BFAC
:1029B0000000025008B5054B5A6842F002025A6006
:1029C000FFF79CFF0023037308BD00BF0000025007
:1029D00008B5FFF793FF007B08BD72B6044B1B5C84
:1029E0001BB900BF62B630BFF7E762B6704700BFE1
:1029F00000000020C0B2012803D8094B1B681878DA
:102A00007047831E012B03D8064B1B68587970470B
:102A1000043801289DBF034B1B689879002070473C
:102A2000501B0020541B00207047704770477047B0
:102A3000014B1B6818787047501B00204FF0405026
:102A400070470148704700BF00A000300048704741
:102A50000080003000487047004000300020704780
:102A6000C0B200F01BBA7047F8B5044601F006FD8D
:102A7000104B1A6800235068471C9F4216680ADBF7
:102A8000D568002106FB05551D4444F8231044F881
:102A900025100133F1E701239E420ADBD5680021AE
:102AA0005D4344F825100544013544F825100133F1
:102AB000F2E7F8BDE8040020024BB3F87C00C0F355
:102AC000072070470000105040BA80B2704700BA2B
:102AD0007047284B2DE9F7431D6800269846264F7E
:102AE000264CBD421FD280377F1B832FD4BFBF101F
:102AF00020270123677000202A462049BF10E37079
:102B0000207100F0CDFD2B463A4612F1FF3207D37B
:102B100026B91968B1F1CD3F18BF1E460433F4E75A
:102B200005EB8705DBE7D8F8003002ADF31A45F86E
:102B3000043D4FF001094FF00408A72321462A461F
:102B400000208437237184F8019084F80380BE1B31
:102B500000F0A6FDA823002021462A46019684F80D
:102B6000019084F80380237100F09AFD03B0BDE862
:102B7000F08300BF6C1B0020807F0020B402002087
:102B8000F8B50546FFF788F8066807460024B44202
:102B90000ED006F100537A68013B1B1B02EBC30108
:102BA00052F83330AB4201D14B6898470134EEE71D
:102BB000014B013D1D60F8BD5C1B0020F8B50546CA
:102BC000FFF76AF8866807460024B4420ED006F183
:102BD0000053FA68013B1B1B02EBC30152F8333070
:102BE000AB4201D14B6898470134EEE7014B013D00
:102BF0001D60F8BD5C1B0020034B01221A70034BC3
:102C000000221A60704700BF00000020000008503A
:102C1000034B01225A70034B00221A60704700BF19
:102C20000000002000000950034B01229A70034B62
:102C300000221A60704700BF0000002000000A5008
:102C4000034B0122DA70034B00221A60704700BF69
:102C50000000002000000B500C4B00211A790C4B97
:102C60001201D2B283F8042310221A60094B4FF4E8
:102C70007A721B689B685343074A93FBF0F0074B3B
:102C80005860117001221A60704700BFBC06000036
:102C900000E100E0B0020020000000200000085029
:102CA000044B1022C3F88021C3F88020024B00227D
:102CB0001A60704700E100E000000850114B10B5A9
:102CC0001A79114B1201D2B283F8042310221A6030
:102CD0000E4B4FF47A721B689B6858430C4B90FB69
:102CE000F2F0012258601A600A4A00231370144659
:102CF000227832B9002BFBD1012000F07FFA0123AA
:102D0000F6E710BDBC06000000E100E0B0020020C4
:102D100000000850000000200C4B00215A790C4B99
:102D20001201D2B283F8052320221A60094B4FF416
:102D30007A721B689B685343074A93FBF0F0074B7A
:102D40005860517001221A60704700BFBC06000035
:102D500000E100E0B0020020000000200000095067
:102D6000044B2022C3F88021C3F88020024B0022AC
:102D70001A60704700E100E0000009500C4B002190
:102D80009A790C4B1201D2B283F8062340221A60C2
:102D9000094B4FF47A721B689B685343074A93FBB5
:102DA000F0F0074B5860917001221A60704700BF25
:102DB000BC06000000E100E0B0020020000000209E
:102DC00000000A50044B4022C3F88021C3F8802041
:102DD000024B00221A60704700E100E000000A5038
:102DE0000C4B0021DA790C4B1201D2B283F8072385
:102DF00080221A60094B4FF47A721B689B68534318
:102E0000074A93FBF0F0074B5860D17001221A601B
:102E1000704700BFBC06000000E100E0B0020020E7
:102E20000000002000000B50044B8022C3F88021DA
:102E3000C3F88020024B00221A60704700E100E0D6
:102E400000000B50084B0022B0F1807F9A7209D22B
:102E5000064B013806495860F02081F823009A603B
:102E600007221A60704700BF0000002010E000E059
:102E700000ED00E0014B00221A60704710E000E016
:102E8000054B00225A714FF080431A68012161F30B
:102E900007021A60704700BF000000204FF0804317
:102EA000D8727047044B012283F86620034B1A6ADC
:102EB00042F480521A627047981B002000000250B2
:102EC000044B002283F86420034B1A6A42F4005238
:102ED0001A627047981B002000000250704770472C
:102EE000704738B5174C03F0DDFA94F86420164BA0
:102EF00022B9164A5268C2F300321A711879A36DCA
:102F00005330C0B2984794F864300F4D0133DBB2B0
:102F100084F8643003F0D2FA94F8642094F86730AF
:102F20009A4209D3EB7823B12B79DBB26B71012381
:102F3000AB70002384F86430044B1A6A42F4804278
:102F40001A6238BD981B0020601B00200000025050
:102F5000062390FBF3F2012103FB120201FA00F0B9
:102F600010B50C4B08321C69D2B204431C615C6979
:102F700004435C619C6924EA00009861064B9C5CF8
:102F8000064B2401981801FA02F2E4B280F80043DB
:102F90001A6010BD00000250BC06000000E100E015
:102FA000704770B5294D2B7803F0FF04002BF9D141
:102FB000274B01266C702E705E6400BF988200BFA4
:102FC000986962F30B00986100BF4FF4C04018820B
:102FD00000BF986C64F3C710986400BF986C64F3EA
:102FE0008610986400BF986C64F34510986400BF25
:102FF000986C64F30410986400BF986C64F3C30089
:10300000986400BF986C64F38200986400BF49B96B
:103010000F4B9A6C42F001029A6400BFBFF36F8FAE
:103020001A4609E0631CE4B29442F1D20E5D0948ED
:1030300020F814601C46F5E7136D002BFCD100BF8F
:10304000034A536400BF2B70012070BD601B002039
:10305000000001500060003070B52F4C237803F061
:10306000FF05002BF9D12D4B6570012525705D649E
:1030700000BFDD7B1DB900BF40F0800002E000BF53
:1030800040F40040988200BF244B551C986965F3BA
:103090000B00986100BF4FF4C040188200BF986CCD
:1030A00040F08000986400BF986C6FF386109864BD
:1030B00000BF986C6FF34510986400BF986C6FF375
:1030C0000410986400BF986C6FF3C300986400BF4D
:1030D000986C6FF38200986400BF986C40F0010018
:1030E000986400BFBFF36F8F1846036D002BFCD1AF
:1030F00000BF581CDBB2934206D2094D5E1C35F866
:103100001650CD540346F4E7044A0023536400BF2D
:103110002370012070BD00BF601B00200000015023
:103120000060003030B5324A137803F0FF05002B01
:10313000F9D1304B0124147055705C6400BFA0F5C8
:10314000D444012C94BF4FF46A4440F400449C8260
:1031500000BF9C6961F30B049C6100BF00211972E0
:1031600000BF254946F6012391F8641098424FF0BC
:10317000440303FB01F11F4B4FF018000CBF01F596
:10318000405101F50051187100BF2420587100BF53
:10319000986C6FF34510986400BF198200BF996C5A
:1031A00041F08001996400BF996C6FF386119964B6
:1031B00000BF996C6FF30411996400BF996C41F0E2
:1031C0000801996400BF996C41F00401996400BF43
:1031D000996C41F00101996400BFBFF36F8F196DC5
:1031E0000029FCD1034B01205964117030BD00BF90
:1031F000601B002000000150981B0020012815D002
:103200001BD302281AD1144B1A6942F480321A6176
:103210000022DA704FF0A0435A8B92B232B90122E9
:103220001A74BFF36F8F00BF00BFF3E70B4B1A692F
:1032300042F004021A61BFF36F8F30BF431E012BAF
:1032400009D8022802D1044B0122DA70034B1A6913
:1032500022F004021A6170470000105000ED00E0F7
:10326000014B1860704700BF681B0020014B1868B5
:10327000704700BF681B002073B5FDF753FD06467D
:1032800001F0FCF80446FFF71BFB1A4900238DE808
:103290000A00194902460869082313F1FF3303D3D2
:1032A0001DF80350C554F8E70D6900232B72086818
:1032B00004236B72334606F1100553F8046BAB42DE
:1032C00040F8046BF9D10B6821881982A1885982D2
:1032D0000A49096891F82C1019B191791975517939
:1032E00002E05179197591795975D2799A7502B0C0
:1032F00070BD00BF4D49500020000020E8040020B0
:10330000084A0949936A5B78DBB2012B0B7202D041
:10331000022B02D07047FFF73FBB536A01225A705D
:10332000704700BFC402002070050020094B10B593
:103330001B7A094C012B05D0022B05D1636A0022B0
:103340005A7001E0FFF736FB63691A786FF30602E3
:103350001A7010BD70050020C4020020F8B5174C8B
:103360000025174E337A012B06D016D3022B15D128
:10337000144B5B6A5D7811E0FFF72AFB054654B9F0
:10338000FFF718FB40F22D13013B01D000BFFBE714
:10339000FFF702FB094C013C00E00025094F327A9F
:1033A000BB6A5B789A4206D0FFF7C0FFBB6A5A78C7
:1033B000034B1A72F8BD002DD3D1F8BDFF2C0100CC
:1033C00070050020C4020020014B9B6A18787047EA
:1033D000C4020020014B9B6A58787047C402002049
:1033E000014B9B6A98787047C4020020014B9B6A8E
:1033F00098707047C4020020014B9B6AD8787047D0
:10340000C4020020014B9B6AD8707047C4020020A0
:10341000014B9B6A58687047C4020020024B9B6AAC
:103420005A685860704700BFC4020020014B9B6A75
:10343000187A7047C4020020014B9B6A18727047CB
:10344000C4020020014B9B6A587A7047C4020020D6
:10345000014B9B6A58727047C4020020014B9B6A63
:10346000D87A7047C4020020014B9B6AD87270471B
:10347000C4020020014B9B6A987A7047C402002066
:10348000014B9B6A98727047C4020020014B9B6AF3
:10349000187B7047C4020020014B9B6A1873704769
:1034A000C4020020014B9B6A987C7047C402002034
:1034B000014B9B6A98747047C4020020014B9B6AC1
:1034C000587B7047C4020020014B9B6A58737047B9
:1034D000C4020020014B9B6AD87B7047C4020020C5
:1034E000014B9B6A187C7047C4020020014B9B6A09
:1034F000587C7047C4020020034BA0225B6A1A70FC
:103500001A78A02AFCD07047C4020020034BC2B234
:103510005B6A1A701A788242FCD07047C40200209D
:10352000014B1B6B18707047C4020020014B1B6BD2
:1035300018787047C4020020014B1B6B5878704705
:10354000C40200200E4B70B51A6BFF2414700D4C92
:1035500058632160847806780579407906FB045425
:1035600000F07F00604399680860596AA0200870E5
:10357000996A1378FF2B02D10B78022BF9D070BD1A
:10358000C402002070050020014B1B68188870479A
:10359000681B002008B5FFF7E1FE024B0022DA604D
:1035A00008BD00BF7005002070B5074B074C1A69B5
:1035B000E6689579014698692A463044354403F017
:1035C000E7FDE56070BD00BFC4020020700500206B
:1035D000074BDA685AB1074BD2B25969087800F044
:1035E0007F0062F3060008709A77FFF789BE704784
:1035F00070050020C4020020F8B50B4C05460F46AC
:10360000FFF7ACFE6369F9B21A78A66962F07F022F
:1036100061F30602A5611A70A177FFF771FEFFF74B
:103620009DFEA661F8BD00BFC402002037B58DF82D
:103630000720194AD46B257885422BD1FF202070B2
:1036400093640DF10700D36F50649DF807009B68E9
:103650008000116418711148069B0C79036088780A
:103660000D78497905FB004001F07F0141439368E3
:103670001960536AA0211970D16B936A0A78FF2AE6
:1036800002D11A78002AF9D00A78FF2A02D11A78D2
:103690000B2AF3D003B030BDC40200207005002017
:1036A00070B5104CD4F89C301D79EDB2012D18D1B5
:1036B00085401E68354214D0FF2018710A48C4F8AE
:1036C000A010026088780D78C978684301F07F0106
:1036D0004143A2681160626A772111701A79FF2A4A
:1036E000FCD070BDC402002070050020024BD3F84E
:1036F000A4301878704700BFC4020020024BD3F8F2
:10370000A4301870704700BFC4020020024BD3F8E9
:10371000A4305878704700BFC4020020024BD3F891
:10372000A4305870704700BFC4020020024BD3F889
:10373000A4309878704700BFC4020020024BD3F831
:10374000A4309870704700BFC4020020024BD3F829
:10375000AC301878704700BFC4020020024BD3F889
:10376000AC301870704700BFC4020020024BD3F881
:10377000AC305878704700BFC4020020024BD3F829
:10378000AC309878704700BFC4020020014BD3F8DA
:10379000B0007047C4020020014BD3F8B40070475A
:1037A000C4020020014BD3F8B8007047C4020020C7
:1037B0000023B2F5704F0360F0B50B6039DA1412D4
:1037C000122C1C4B1CD803EB8403DC6C002C30D077
:1037D000E368013B5F1C12D06768D5B2FF5C1E46F0
:1037E000ED1B03F1FF33F5D4236853F8263003B300
:1037F0002B440360A3689B5D5D1B0D60F0BDF0BDB5
:10380000DD685E686C1E06EB4505661C11D035F858
:10381000026D2746961B04F1FF34F6D41A6852F85D
:103820002720324402609B6853F827309E1B0E60AD
:10383000F0BDF0BDC4020020B0F5C06F094B06D149
:103840005B6A1A78052A0CD005221A7070475B69EA
:103850001B7803F07F0303F50473984201D1FFF74F
:1038600065BD7047C402002010B58842029C09DB88
:10387000904209DAE41A401A6043511A90FBF1F0C1
:10388000184410BD184610BD204610BD044A033030
:10389000136820F00301194411601846704700BFF7
:1038A0006C1B002070B5154601244E1EB44203DA8D
:1038B00035F9026FB0420FDA6500023D33F914109A
:1038C00032F914405B5F001BCB1A5843535FE41A74
:1038D00090FBF4F0084470BD0134E6E7014B18603A
:1038E000704700BF801B0020014B1868704700BF65
:1038F000801B0020014B1860704700BF741B002024
:10390000014B1868704700BF741B0020014B186002
:10391000704700BF7C1B0020014B1868704700BF38
:103920007C1B0020014B1860704700BF781B0020F3
:10393000014B1868704700BF781B0020014B1868C6
:10394000704700BFEC04002073B506460D461B48C7
:1039500071467446FFF714F9194B1A6896F82A3025
:10396000917B4B4329689B118B42B8BF0B46917AE0
:103970004B4314499B1191F86800019310B9127AD6
:10398000934207DB91F868202AB10F4A1268527DF2
:10399000934200DA01920D4901224A708422CA70D2
:1039A0001F220A71062001AAFFF77AFE034821466A
:1039B000019DFFF703F9284602B070BD49390000A8
:1039C000741B0020981B00207C1B0020B4020020E8
:1039D0002DE9F84F3A4D0C4617469B468246FDF7B7
:1039E000A1F9FDF7ABF9FEF76BFF2B6835495B6971
:1039F00002204B700423CB703A465A230B71FFF719
:103A00004FFE002384F82A302B682F495D692F4B25
:103A1000AA00D3F800C02E4B0E68D3F800800AEB42
:103A200045000BEB020389463A4415F1FF353BD3C1
:103A3000284F52F8041D97F868703FB937782FB1B6
:103A40000CEB050797F800757943891153F8047D4D
:103A5000B1EB174112D4777AB942A4BF012788F895
:103A6000047096F90B70B94214DBC7EB010A2768A2
:103A7000574427606769013767610BE096F90D705D
:103A8000B94207DCC7EB010AA7685744A760A769DA
:103A90000137A76120F8021D94F82A70B942B8BF17
:103AA000394684F82A10C0E7D9F8003094F82A0083
:103AB0001B79984234BF00200120BDE8F88F00BF79
:103AC000E8040020B4020020741B0020781B0020B2
:103AD000EC040020981B00202DE9F04F884E91B097
:103AE0000C4607920F930E90FDF71CF9FDF726F98F
:103AF000336884491A681B790A704B708B700423F1
:103B0000CB7002205123079A00250B71FFF7C8FDE7
:103B10007F2384F8243084F826302946402284F814
:103B2000255084F8275004F1540003F0A7FB2946E0
:103B3000282204F12C0003F0A1FB294604F1940093
:103B4000402203F09BFB704B93F8683003F0FF01B9
:103B50001BB96E48502203F091FB6D4B1B6893F824
:103B6000DC216C4B1B680AB103F5207336680693A1
:103B700073683268013BDBB20993674B013A1D68F9
:103B8000664B52B21B68501C0A93654B04EB420E05
:103B90001B684FF0000B04935C4B0EF12C0E03EBF3
:103BA00080006FF0030353430C9393000D93DA46A8
:103BB000002AC0F24E81099FDDF830C079B204EBD3
:103BC0004103DDF83490543384440593CC440029F8
:103BD000C0F23A81B368079F03FB021857F82830F8
:103BE000494F97F8687057B92F7847B1DDF81890AA
:103BF00019F808707B430A9FBF687B431B130F9F14
:103C000057F82870A3EB17430E9F002B27F81830A6
:103C10003D4F97F86870C0F2F680E7B995F90B80D0
:103C2000434518DB2768C8EB0308474427606769EA
:103C300001376761BEF868700137AEF8687095F9B2
:103C40000C9095F90B804B456768D4BFC8EB03080F
:103C5000C8EB090827E02C4F97F868702FB3049F32
:103C600097F91E80434520DB2768C8EB03084744CB
:103C70002760676901376761BEF868700137AEF881
:103C8000687095F90C70BB4267680397049F97F9B9
:103C90001E80CABF049FC8EB030897F92090039FBA
:103CA000C8BFC8EB090847446760E768BB4206DD48
:103CB0005FFA81F9D7B2CDF82C900897E360DFF86E
:103CC000489099F86880B8F1000F04D0049F97F8E5
:103CD0001580434560DA99F86870002F76D12F7A05
:103CE000BB4273DB4FF0010909FA01F85CF8047C70
:103CF00048EA07070297A9B94CF8047C2DE000BFF9
:103D0000E804002060050020981B0020E00A002045
:103D1000B8000020781B0020741B0020EC04002059
:103D20007C1B00204F1E09FA07F9029F49EA07078A
:103D30004CF8047C3AB150F8087C48EA070747EA97
:103D4000090740F8087C3768013FBA4205DA07687E
:103D500048EA070747EA090707607768013FB94261
:103D60001ADA4F1C4FF0010808FA07F85CF8047CD7
:103D700047EA08094CF8049C2AB150F8087C47EA45
:103D8000080940F8089C376807F1FF394A4503DA0B
:103D9000076847EA0807076094F927700BF1010BE1
:103DA0008F4294F92670B8BF84F827108F4294F997
:103DB0002570C8BF84F82610974294F92470B8BFC4
:103DC00084F825209742C8BF84F82420059F1FFA55
:103DD00083F9B7F80080C844A7F80080BEF80080D7
:103DE00009EB0807AEF80070414F97F86880B8F10A
:103DF000000F03D195F80480434502DD97F8687001
:103E0000EFB19A441BE01FB995F90D80434508DDD9
:103E1000374F97F8687067B1049F97F91F80434543
:103E200007DCA768C8EB03084744A760A769013708
:103E3000A7612769C3EB0A0ABB42B8BF2361059B90
:103E40000139023B0593C2E6013AAEF1020E043895
:103E5000AEE6284B284D1B6822461B6901269AFBBB
:103E6000F3F342F81C3F8423EB7030467623294657
:103E70002B716E70FFF714FCFE23304629461F4A53
:103E80002B716E70EE70FFF70BFC94F9252094F9FE
:103E900024300B9F9A421A4BDDF820901B68B8BF64
:103EA0000022C4F820B0ACBF1E711A7184F82870CB
:103EB00084F82990FFF7A0FAE36838B9114A12682C
:103EC00011798B420FDAB2F9063006E00E4A126819
:103ED000917E8B4207DAB2F91C3020699842CCBF40
:103EE0000020012000E00120C0B211B0BDE8F08F39
:103EF000981B0020E8040020B4020020FD1B0020D5
:103F0000EC040020741B00207C1B00202DE9F74FDF
:103F100001915F495F4D0F685F4995F868500968E6
:103F20000446D269F878C96815B15C480068407EDB
:103F30008240012AB8BF01224A4392FBF3F3584A58
:103F4000584D16684FEA430C32689B00511E4901D8
:103F5000681805F5207500930D4412F1FF32C0F08A
:103F6000818071684FEA820911F1FF3177D3B3681C
:103F7000DFF820A103FB02189AF868B0019B33F91F
:103F800018E0BBF1000F09D0736803FB021854F866
:103F900028300CFB0E3E44F828E0E5E7DFF80CB1D2
:103FA00059F80BB02BFA01FB1BF0010F22D197F847
:103FB00004B0DE451EDAB7F906B0DE451ADD54F866
:103FC00028300CFB0E3E44F828E09AF865E0BEF17C
:103FD000000F07D110F801E0BEF1FF0FC4D00EF1C1
:103FE000010E22E015F801E0BEF1FF0FBCD00EF18A
:103FF000010E31E0DFF89CA09AF865A0BAF1000F3D
:1040000016D110F801A0BAF1000F0CD115F801A0DB
:10401000BAF1050F07D954F82830DDF800A00AFBE3
:104020000E3E44F828E04FF0000E00F801E09BE758
:1040300015F801A0BAF1000F0CD110F801A0BAF1E7
:10404000050F07D954F82830DDF800A00AFB0E3E12
:1040500044F828E04FF0000E05F801E084E720382E
:10406000203D7AE7104D1023AB71336804202B708C
:10407000337929466B70AB7022466023E8702B7150
:10408000FFF70EFB00230120AB7103B0BDE8F08FFA
:10409000741B0020981B0020EC0400207C1B0020D7
:1040A000E8040020E005002060050020E00A002070
:1040B000F8B5154B06461B68DB6893FBF2F2134B11
:1040C0001B685B6900EB830401EB43011D4615F19E
:1040D000FF3508D331F9027D54F8040C02FB1700B8
:1040E00044F8040DF3E70A4C1022A2716370042017
:1040F000612321463246E0702371FFF7D1FA002395
:10410000A3710120F8BD00BFEC040020E8040020EA
:10411000B40200202DE9F04F91B00C469DF86C5090
:104120009DF8686004938146089200F0C5F9DFF8B5
:1041300090A24FF0000B7F2280F8F4B084F8242086
:1041400084F82620DAF8002084F825B084F827B017
:10415000984F92680421BA70FA78804661F306029B
:104160006BF3C712FA70A0223A7102203946089AFE
:104170003E707D70FFF794FA8F4A049B12684FEAF5
:10418000450C06926FF003026A430B92AA0006FBED
:1041900002326FF001036B4306FB0C9CDAF800104F
:1041A0000D930A9105923346584613F1FF3367D3B6
:1041B00005992A46E346079112F1FF3257D3079932
:1041C00051F804ED07910A99896801FB032A0899BF
:1041D00051F82AA00699AAEB1E4EBEF1000F2BF84B
:1041E00002ED30DB91F91EA0D64504DB2168CAEB55
:1041F0000E0A51442160069991F800A0D64520DBB3
:1042000094F92710914294F92610B8BF84F827201A
:10421000914294F92510C8BF84F82620994294F958
:104220002410B8BF84F825309942E168C8BF84F8EB
:104230002430714505DAD1B20C91D9B20991C4F894
:104240000CE07044B8E791F91FA0D64507DCA168DF
:10425000CAEB0E0A5144A160A1690131A161216933
:10426000CEEB00008E45B8BFC4F810E0A4E7059A75
:10427000DDF82CB0DDF834E05A440592F44494E7BC
:1042800005FB06F24D4BE1681B6890FBF2F000293C
:1042900018604BDD484B94F825E094F824C01B6867
:1042A0000EF1010ECCEB0E0E93F813C05FFA8EFEEA
:1042B000F44594F8270094F8262035D30130821A6B
:1042C00093F814E0D2B296452ED393F801A01A4683
:1042D000D01A50451EDADDF830B092F802C04FFA1D
:1042E0008BF0013210EB0C0092F809E0F0D4A842F8
:1042F000EEDADDF824B04FFA8BFC1CEB0E0EE7D49F
:10430000B645E5DA0EFB050E39F91E000028C8BFD8
:104310000918DDE798F8F0205AB99B7C994208DD2E
:10432000012388F8F43004E0012300E0002388F83A
:10433000F03023494FF002080B6801209A690EA95A
:104340008DF83820DA698DF839201A6A8DF83A200C
:1043500093F82C205B698DF83B208DF83C300022CF
:1043600048F080038DF83D30CDF800901346FFF7FC
:104370005DF948F08008A1230E494A4601203B71AF
:104380003E707D70BD7087F80380FFF789F90A4B96
:10439000E2681B68997E8A4207DA2069B3F91C300B
:1043A0009842CCBF0020012000E0012011B0BDE800
:1043B000F08F00BF600500207C1B0020EC04002073
:1043C000E80400202DE9F74F844626489DF8304048
:1043D000056825486FF00108006808FB04F9067EAF
:1043E0002868ED68B0400128B8BF0120684390FB01
:1043F000F2F26FF003006043A6000190600003FB3F
:1044000006C604FB088803FB00111F464FF0000E90
:1044100017F1FF3712D30EEB010A0025023D454587
:1044200008D03AF905B056F8150002FB0B0046F823
:104430001500F3E70198CE440644E9E70B4D10223E
:10444000AA712B7004206023294662462B716C7080
:10445000AC70E870FFF724F90023AB7103B0BDE83E
:10446000F08F00BFEC0400207C1B002060050020C2
:10447000014B1860704700BF881B0020014B186873
:10448000704700BF881B0020014B1860704700BFB9
:10449000841B0020014B1868704700BF841B00205C
:1044A000014B1860704700BF8C1B0020014B18683F
:1044B000704700BF8C1B0020014B1868704700BF7D
:1044C000F00400202DE9F84305460F461F487146C9
:1044D000F0461646FEF754FB1D4B1B6893F8283038
:1044E000013BDBB2FF2B29D0FA685C0032F91310D4
:1044F000D5F804909A00D6F804C0A868B1B1E9686C
:1045000031F9131091B1796859F80290095F805818
:10451000C1EB090109EB6109B9682CF80490095F46
:10452000B268411A00EB61001053D9E759F8021044
:1045300082582CF80410B1680A53D1E72B78414611
:1045400033700248BDE8F843FEF738BBC5440000AD
:10455000E804002070B504460E46104871467546C2
:10456000FEF70EFB0E4B1B6893F82C1093F82D20D2
:1045700031B1218830882080318042B11B6801E050
:104580002AB15B682288013BC2EB032323802946C2
:104590000248BDE87040FEF711BB00BF5545000062
:1045A000E804002038B5064D744628467146FEF7EB
:1045B000E7FA28462146BDE83840FEF7FFBA00BFBB
:1045C000A54500002DE9F04F714606468FB04C48D6
:1045D000F046FEF7D5FA4B4B38251B686C465F79E1
:1045E000494B1B6805FB07351C350FCD0FC40FCD9C
:1045F0000FC40FCD0FC495E8030084E803004349BE
:1046000035680A688A4692F82C30746806CA33B155
:1046100001F1FF3B4FEA0B2B02F1FF3905E002F1FC
:10462000FF3B4FEA0B2B01F1FF39012F4FEA09291C
:104630005FD0FF2D12DC2846009901AA13B10DF1BD
:10464000220301E00DF10E03FFF72CF9A5F58075AB
:1046500000B24543AD1105F5807515E0C5EB0B07BC
:10466000FF2F11DC3846009901AA0BB10BAB00E01B
:1046700006ABFFF717F9A7F5807705B27D43AD11BB
:1046800005F58075C5EB0B05FF2C15DCDAF800305D
:10469000204693F82C30009901AA0BB106AB01E03B
:1046A0000DF12203FFF7FEF8A4F5807400B2444335
:1046B000A41104F580741AE0C4EB0907FF2F16DC7F
:1046C000DAF80030384693F82C30009901AA13B17B
:1046D0000DF10E0300E00BABFFF7E4F8A7F58077D0
:1046E00004B27C43A41104F58074C4EB0904356062
:1046F000746003484146FEF761FA0FB0BDE8F08FE1
:10470000C5450000F0040020881B0020E8040020BC
:104710000C4B10B51A68002382F8AE300A4B1B68A8
:104720001B7D013BDBB2FF2B0BD030F8134021B2D5
:10473000002903F1540102EB4101D8BF00240C8190
:10474000EFE710BDF0040020E804002010B58B78DE
:1047500090F902405AB29442C8BF8370CB7890F966
:1047600003405AB29442B8BFC3700B7890F900402E
:104770005AB29442C8BF03704B7890F901105AB2F4
:104780009142B8BF437010BD2DE9F04F89B003933B
:104790004B1C46680793C36856F8217033F911C063
:1047A0004D0007FB0CFA069556F8227033F91250AB
:1047B000139C07FB05AA0CEB05089AFBF8F73FB220
:1047C00046F8217086684FEA420B56F821704FEA8E
:1047D000820907FB0CFC56F822708B0007FB05C50D
:1047E00095FBF8F73FB246F82170039F05693E68D4
:1047F00045F82160C56835F8117035F812603E44FF
:1048000025F81160002625F81260456935F8126018
:1048100035F911C037B2BC450EDA25F8116085694B
:10482000DDF818A005EB0B06767855446E708569A7
:1048300015F8126005F81160561C0F2E4FF0010894
:104840000BDC08FA06F854F80950013608EA0508A6
:10485000E55845EA0805E550EFE708FA02FC08FAD2
:1048600001F8002544F822506FEA0C0927469542CA
:104870001CDA57F8046B16EA0C0F15D08D4204DAD7
:1048800046EA080647F8046C08E007DD4FF0010A25
:104890000AFA05FAE65846EA0A06E65057F8046CA2
:1048A00006EA090647F8046C0135E0E7039C94F931
:1048B00000400494039D049E95F90140A64200F334
:1048C000AD80039D95F90280039FDDF8109097F964
:1048D000034009F10105A04500F39E80634C129F3F
:1048E0002468E46805FB048501357E5D0594013E7E
:1048F000112E0195029640F38C804FF0FF3C00276B
:10490000042414F1FF3426D3DFF864B1DDF81090ED
:1049100014F90BA0059DCA440BF1080B0AFB055ABC
:1049200014F90B90DDF848B0C344DA44CA449AF84D
:10493000019009F1FF39B9F10F0FE2D8894501D093
:104940009145DED1BCF1FF3F03D0CC4518BF012714
:10495000D7E7CC46D5E7002F5BD0029E122E54D16C
:10496000079FDDF848A0DDF8049004240AF80970D8
:1049700014F1FF344DD33E4DDDF810C005F10806AB
:1049800014F905A0394D14F906B02D68E244EE681B
:10499000C3440AFB0666129F01365E44BD5D002DCE
:1049A000E6D1149F37F81650002DE1D0DDF848907D
:1049B000122709F80670C768069E05FB0BFBBE5B55
:1049C000D0F804C00FFA86F905965CF8036005FB81
:1049D0000AFA4FEA0B2B06FB09BB86684FEA0A2A44
:1049E000F75807FB09A9DDF814A0069F5544D0F835
:1049F0000CA0ADB22AF807502DB29BFBF5FB99FB3A
:104A0000F5F74CF803B0F750B2E7029C129E019DF7
:104A1000745508F1010857E704954BE795F9001024
:104A2000039E96F9013099421DDC039F97F90230ED
:104A3000039D95F90300834201F1010011DC0B4C49
:104A4000DDF848902468E46804FB0030013019F870
:104A500000400133013C944204BF079C09F8004028
:104A6000E6E70146DCE709B0BDE8F08FE804002086
:104A7000B47600002DE9F04F8DB0089106467146DE
:104A80004048F24609929846FEF77AF80024F36807
:104A9000620033F91430002B6AD0B3691A4492F9DA
:104AA000012013F81430069207934FFA83FC02F1A9
:104AB000FF39DDF818E00EF1010BD94558DC0CF197
:104AC000FF370CF101039F424FDC2F4B08991B6805
:104AD000DB6809FB0332501C38440D5C013D0F2D8F
:104AE00041D8AC423FD07169DFF8A0E031F9141031
:104AF00038F81000DEF800E08142BEF808E032DC51
:104B00000EFB01F1DDF81CE089114FFA8EF0024432
:104B1000013238F81220914225DA0BFB037301337E
:104B200038F8133099421EDAA54202DB2B4625469F
:104B30001C46316951F8240001EB85010B900BA84C
:104B4000CDF814C0FFF702FE0899099B009101936C
:104B50002246CDF80880304629460BABFFF714FEFD
:104B6000DDF814C02C460237ABE709F10209A0E7D3
:104B700001340F2C8BDD03485146FEF71FF80DB0B2
:104B8000BDE8F08F754A0000E8040020841B002077
:104B90002DE9F04F9FB00893054607910F92FFF75C
:104BA00069FF289B1B78012BA94B09D12A78012A80
:104BB00006D91B68B3F804C0DB88CDF82CC005E02B
:104BC0001B68B3F800C05B88CDF82CC00C930F2491
:104BD000631E002C00F070810F98264650F82320A9
:104BE000E2401C46059205980028F1D0102EEFD027
:104BF0000599CB0740F15B816B68A96853F82420C5
:104C000053F826304FEA8408D21A51F8243051F86C
:104C1000261082EAE27CACEBE27C5B1A83EAE3706A
:104C2000A0EBE3708445D4BF00210121B700CDF88B
:104C300018C004900A9121B11B0293FBF2F309936F
:104C400003E0120292FBF3F209922969C859414428
:104C5000149014A8FFF77AFD6968EA6851F808E033
:104C600032F91630CDF860E0C85932F914201A90A4
:104C700002FB00FC03FB0ECED1189EFBF1FEA868E0
:104C8000CDF864E050F808E0CDF86CE0C05942433C
:104C900003FB0E2292FBF1F11C911D900C2215A832
:104CA000002102F0EBFA9DF952309DF95120119349
:104CB000684B9DF953C01B689DF950801092CDF848
:104CC00048C013931098804500F3A9804FEA08204C
:104CD000119B0E90DDF848C008F10101634500F317
:104CE0009C80139A0798D2F80CC001FB0C3101315B
:104CF000405C421E0F2A0D903EDD00274FF0FF3032
:104D0000BE46042212F1FF3226D3DFF850B112F969
:104D10000BA00BF1080BC2440AFB0CCA12F90B9052
:104D2000DDF81CB09B44DA44CA449AF8019009F1BA
:104D3000FF39B9F10F0FE5D8A14501D0B14507D131
:104D4000B0F1FF3F06D0484518BF4FF0010ED9E73C
:104D50000127D7E74846D5E701305CD0BEF1000F08
:104D600010D17FB10898DDF834C030F81120ACF1D3
:104D7000110192FBF1F008E0501C4CD0A24201D08E
:104D8000B24248D1089A32F81100002843D01F02DD
:104D900000210A9AA2B11BAA0A44DDF838C0926821
:104DA0000DF1600EC2EB0C02DDF824C08E4402FB54
:104DB0000CF2DEF808C0ACEB222CC7EB0C0C11E0B7
:104DC00018AA0A449268DDF824C0BA1A02FB0CF251
:104DD0000DF16C0E8E44DEF808C0ACEB222C0E9A5E
:104DE000C2EB0C0CBCF1000FB8BFCCF1000CBCF155
:104DF000FF0F0CDCCCF5807C0DF1540E0CFB00FC9D
:104E00008E44DEF8082002EB2C22CEF8082004396C
:104E100011F10C0FBDD101335CE7884652E7179BB7
:104E2000159A9A42A8BF1A460A9B23B9049BBBB1A4
:104E30000698069304900499DDF818C08B0193FB43
:104E4000FCF305493F2BA8BF3F23CB5C09E000BF23
:104E5000841B0020E8040020CC060000B47600008B
:104E6000049BDDF830C0C3F12D0103FB0CF3DDF82A
:104E70002CC001FB0C332D2193FBF1F35343169A05
:104E8000B2EBA32F13DDA64202DB334626461C46B7
:104E900007980F99089A0090019102923146224694
:104EA00014AB2846FFF770FC234634461E46059B8C
:104EB00001365B08059396E6254E2C7030684FF05E
:104EC000FF311830102202F0D9F92346E968E0B228
:104ED00031F914106200002920DD2978834201F1A4
:104EE00001012970316821440B7615D0696851F8A9
:104EF000240041F82300A96851F8240041F8230058
:104F0000E968885A21F81300296951F8240041F80A
:104F10002300E968002088520133DBB20134102CF1
:104F2000D4D10C4B0C491B6806201A680A705A68C9
:104F30004A70DA680123CB7030230B71079B8A70AB
:104F400001321A44FEF7ACFB1FB0BDE8F08F00BF82
:104F5000F0040020E804002060050020144B002825
:104F6000B8BF40421A680029B8BF4942D2F804319C
:104F700010B54343D2F808011B1448430014834280
:104F800002DB1A46034610469A010A4992FBF0F2E8
:104F90008A5C5AB10849C2F15A0431F8122031F83A
:104FA0001440534360431B1403EB204010BD00BF6B
:104FB000F0040020CC0600000E0700002DE9F04FA1
:104FC0009B46824B92461E680278B36A9BB09A4217
:104FD000B8BF13460B70102204460D4606A84FF0CA
:104FE000FF3102F04BF90AA8FF21402202F046F9F6
:104FF000774BB66A1B6803960493764B0027D3F869
:1050000000C0039BFAB29A4254DADAF80C1053004B
:1050100031F9121000294BD00498002600EB8202CF
:10502000D16FDCF80C204FF0FF3902EB41082278F9
:1050300005920598F2B2824220D2E26832F9162037
:10504000D2B16268DBF8041052F826E0C85EA268AC
:10505000DBF8081052F82620C95EC0EB0E00511A8A
:105060000293CDF804C0FFF779FF029B4045DDF8BD
:1050700004C0BCBFB14680460136DAE7B9F1FF3F54
:1050800016D01AAB4B4413F9502C4FEA8909013260
:1050900008D01AA9494451F8402C424508D941F892
:1050A000408C03E01AAA4A4442F8408C03F8507C32
:1050B0000137A6E700212278CBB29A422AD91AAA50
:1050C0001A4412F8502C50B2013021D06668D2B286
:1050D00056F823706E68980046F82270A66856F855
:1050E0002370AE6846F82270E66836F81360EB6805
:1050F00023F8126026696B69365843F82260344BF6
:105100001B6803EB82021AAB184450F8403CD3678B
:105110000131D0E700212378CAB293423ED90DF184
:10512000680C94441CF9503C013335D1E76837F9D9
:1051300012308BB3254B00201B68D3F82890C3B2E4
:105140004B4529DADAF80C604FEA430B36F9136065
:1051500006BBD5F80C8008EB0B0638F91380B8F1C4
:10516000000F17D160680CF8503C50F822C06868F6
:1051700040F823C0A06850F822C0A86840F823C0B7
:1051800037F8120030802669686956F8222040F806
:10519000232001E00130D2E70131BCE70B4B0022B4
:1051A0001C680B4B1B68197EA06A01328142BDBF8F
:1051B0001AA8091811F8501CFF21102A197603F1BA
:1051C0000103F0D11BB0BDE8F08F00BFE804002060
:1051D000F0040020841B00202DE9F04F93B0054619
:1051E00005910692FFF768F96F4B07901B689C6A60
:1051F00014F1FF34C0F0D480EB68670033F9143049
:10520000002BF5DD6A69A30002EB030E9EF9031083
:105210004FF00008089164499EF902200968C346CE
:105220000A91624909680B9108998A426ADC9EF9E1
:1052300001604FEA02299EF900000996CDF83090EE
:10524000DDF824C0511C60455ADC0A9E00F10109BA
:10525000D6F80CC0DDF814A009FB0C111AF8016097
:10526000CDF81090102E039125DD042616F1FF369F
:105270002FD3DFF8409109F1080A16F9099016F9C1
:105280000A10814409FB0CC9CDF80890DDF8149090
:105290009144CA468A4402998A449AF80190B9F125
:1052A000000FE3D00B994FFA89F9894499F91790C7
:1052B000A145DBD107E06EB1DDF81CA0564496F99C
:1052C0001760A64205D1DDF80C90069931F81960F7
:1052D00000E000266968DDF830A0C958CAEB01017A
:1052E0000029B8BF494201FB06BBA968C958A1EB18
:1052F00000210029B8BF494201FB068804989FE7B6
:105300000A4691E76A68DFF8B0A0D65CAA68802EEA
:10531000D35CC8BFC6F58076802BC8BFC3F5807349
:105320001E44DAF800303046196903F114022833BC
:10533000FEF7B8FAEA68DAF800308146D05FC9F1C2
:105340004002B3F958100092DA6B0023FEF78CFA92
:10535000D5F80CA0814409FB0BF009FB08F93AF9D8
:105360000730D5F810B0990190FBF1F099FBF1F1FD
:10537000FFF7F4FD2BF807003AF907300C491193B9
:10538000042380B24B7043F080031090CB70122046
:10539000B0230EAA0E940F960B71FEF781F927E742
:1053A00013B0BDE8F08F00BFE8040020F004002037
:1053B000B4020020B4760000841B002070B5114EAA
:1053C000054630680A220C46A430002101F056FF41
:1053D0000D4B30681B6893F82820013AD2B2FF2A9F
:1053E0004FF000030BD0E96821F81230E16821F892
:1053F0001230811881F8663081F87030EDE72B703B
:10540000237070BDF0040020E804002070B50C4D3E
:1054100000242868052680F8AE4021463246D23066
:1054200001F02CFF286821463246D73001F026FFD4
:1054300028682146B0300A22BDE8704001F01EBF46
:10544000F00400202DE9F34103680DF10601ADF8E9
:1054500004304368044601A8ADF80630FFF77AF837
:105460006E4B1B6893F82C1093E8240019B1561E5C
:105470003602013D02E0013D2E02551E684B2D0211
:1054800093F86830674FDFF8A481002B3AD0BDF95C
:105490000430B3F5007F09DA634AA3F5007312689C
:1054A000927953439B1103F500730DE0F31AB3F5A2
:1054B000007F0BDA5C4AA3F500731268A6F5007151
:1054C000D2795A43A1EBA213ADF80430BDF90630EE
:1054D000FF2B09DC544AA3F580731268127A5343F8
:1054E0009B1103F580731DE0EB1AFF2B57DC4E4A2E
:1054F000A3F580731268A5F58071527A5A43A1EB27
:10550000A2130FE03B681A7E7AB1BDF90430204641
:105510002360BDF906306360FFF754F82368ADF8E7
:1055200004306368ADF8063039E0D8F8002012790D
:10553000AABBBDF90420FF2A08DC93F8C410A2F529
:1055400080724A43921102F580720BE0B21AFF2A70
:105550000ADC93F8C510A2F580725143A6F580705D
:10556000A0EBA112ADF80420BDF90620FF2A08DC4B
:1055700093F8C630A2F580725A43921102F58072F8
:105580000BE0AA1AFF2A0ADC93F8C730A2F5807252
:105590005343A5F58071A1EBA312ADF80620D8F80E
:1055A00000103A688868BDF90470136807445F43C7
:1055B00006EB400097FBF0F6C968BDF9067050682D
:1055C0000F44474305EB4101B6B297FBF1F592F862
:1055D000C810ADF8046036B2ADB28E42ADF80650D8
:1055E00004DD5F1ABE4203DB013B591AADF804101B
:1055F00092F8C9302DB29D4204DDC21A954203DBF8
:105600000138C31AADF80630BDF904302360BDF986
:105610000630636002B0BDE8F08100BFE8040020FE
:10562000981B0020881B0020481B0020F00400204D
:10563000104AC378126810B551685CB201398C42C7
:10564000BCBF0133C370837859B20029C4BF03F1D2
:10565000FF33837012684378013A59B29142BCBF5C
:105660000133437003785AB2002AC4BF03F1FF33F9
:10567000037010BDE80400202DE9F04F89B0054605
:10568000FDF782FFFDF786FF4FF0010800248E4BE7
:105690008E4E1B689A6A944280F2CB803368670012
:1056A0003B44B3F92A20B3F93E3004A80593049291
:1056B000FFF7C8FEEB6804F1280933F91430002B1A
:1056C00040F387806B6802A853F824304FEA840ABD
:1056D0000293AB68DFF8F8B153F824300393FFF777
:1056E000B1FE0399059B049ACB1A83EAE37CACEBE9
:1056F000E37C336802989E46A64400939EF8A4304B
:10570000019253B92B69DB5B322BDBF8003093F845
:10571000843006D91433DBB203E0DBF8003093F8B1
:105720008530009A02EB490BBBF902B0BBF1000FC8
:105730000BDD9C4509DA019AC2EB000CBCF1000FAD
:10574000B8BFCCF1000C9C4562DB9DF81830009A84
:1057500003F01F0343F0C0038DF818309EF8DCE01F
:105760008DF81A006EF3041368F303038DF81830F4
:105770009DF819304FEA202E6EF303034FEA212ED5
:105780006EF307138DF81930EB688DF81B10DB5F93
:105790002146FF2BA8BFFF238DF81C30D2F8003123
:1057A00006A8984706A8FDF7FFFE3268D319B3F99B
:1057B000521022440029CCBF0121002182F8A410FC
:1057C0006A6852F80A205A85AA6852F80A20DA87CD
:1057D0001EE0336803EB4903B3F90230002B17DDF9
:1057E000002307934FF0400368F30303049A8DF8F6
:1057F0001830059BC2F30321181260F3071106A8A5
:105800008DF819108DF81A208DF81B30FDF7CCFE9D
:10581000EA683368D15B03EB49022344518093F873
:10582000DC2008F1010883F8E620013408F00F08B5
:105830002DE75F697C1E631C07F00F072ED03368CD
:105840004FEA44084344B3F9C820B3F9B030002A02
:1058500011DC002B19DD0022069207926FF07F0207
:1058600067F30302FF2BA8BFFF238DF818208DF8E4
:105870001C3006A807E0002B07DC002308A80693CD
:10588000079300F8087DFDF78FFE3368013C434421
:10589000B3F8B020013FA3F8C820CCE733682978DB
:1058A00093F8AE2083F8281083F8C62019B9003287
:1058B00018BF012200E0012283F8F420FDF788FEE2
:1058C00009B0BDE8F08F00BFE8040020F00400201C
:1058D000841B002070B506460C4616487146754676
:1058E000FDF74EF986EAE673A3EBE67384EAE4700B
:1058F000A0EBE470834202DB1A46034610469A018D
:105900000D4992FBF0F28A5C62B10C49C2F15A0473
:1059100031F81440604331F8124063431B1403EB29
:10592000204400E0044603482946FDF747F9204695
:1059300070BD00BFD5580000CC0600000E07000067
:105940002DE9F04314461F46A5B005460E46002239
:105950000123791E8B4202F102021CDAA91831F9E7
:1059600002ECA85EB1F9021070440844032190FBD8
:10597000F1F02DF80200B01830F902CC36F902E04F
:105980000133F444B0F902E00CEB0E0090FBF1F1AE
:1059900012A81152DDE7A7F102084FEA4808424673
:1059A0000DF10201A81C01F0F3FB4246B01C0DF101
:1059B0004A0101F0EDFB33884FF00008E3803388A3
:1059C0004FF00109A3802B8863802B882380B94581
:1059D0002DDAB5F90020B6F90030B5F90200B6F9B4
:1059E0000210801AC91AFFF775FF6B88B4F902100C
:1059F0001AB29142B8BF63806B88B4F900101AB232
:105A00009142C8BF23807388B4F906101AB291423C
:105A1000B8BFE3807388B4F904101AB2914280448D
:105A2000C8BFA38009F1010902360235CFE740461D
:105A300025B0BDE8F0832DE9F04F4FF0150A4FF087
:105A4000010897B006460D469B4692FBFAFA44467B
:105A50004FF000095C4535DA6700023F36F9140063
:105A6000F25F35F91410EB5F801AC91AFFF732FFA5
:105A700009EB0001514522DBE95F35F91430C9EB30
:105A80000A095B1A09FB03F393FBF0F3F25F0B4483
:105A900036F914109BB2891A09FB01F999FBF0F051
:105AA000104416A901EB480280B2F05322F8580CBA
:105AB00022F82C3C08F10108EB53002100E00134EE
:105AC0008946C7E70DF1020302360DF12E0253F8A5
:105AD000041B934246F8041BF9D102350DF15A021A
